{
  "_format": "hh3-artifact-1",
  "contractName": "EventRouter",
  "sourceName": "contracts/EventRouter.sol",
  "abi": [
    {
      "inputs": [
        {
          "internalType": "address",
          "name": "_entropyV2",
          "type": "address"
        },
        {
          "internalType": "address",
          "name": "_pyUsd",
          "type": "address"
        }
      ],
      "stateMutability": "nonpayable",
      "type": "constructor"
    },
    {
      "inputs": [],
      "name": "AlreadyClaimed",
      "type": "error"
    },
    {
      "inputs": [
        {
          "internalType": "string",
          "name": "",
          "type": "string"
        }
      ],
      "name": "InvalidData",
      "type": "error"
    },
    {
      "inputs": [],
      "name": "InvalidEvent",
      "type": "error"
    },
    {
      "inputs": [],
      "name": "NotAlloted",
      "type": "error"
    },
    {
      "inputs": [],
      "name": "Unauthorized",
      "type": "error"
    },
    {
      "inputs": [
        {
          "internalType": "string",
          "name": "",
          "type": "string"
        }
      ],
      "name": "ZeroAddress",
      "type": "error"
    },
    {
      "inputs": [
        {
          "internalType": "uint64",
          "name": "sequence",
          "type": "uint64"
        },
        {
          "internalType": "address",
          "name": "provider",
          "type": "address"
        },
        {
          "internalType": "bytes32",
          "name": "randomNumber",
          "type": "bytes32"
        }
      ],
      "name": "_entropyCallback",
      "outputs": [],
      "stateMutability": "nonpayable",
      "type": "function"
    },
    {
      "inputs": [
        {
          "internalType": "uint256",
          "name": "eventId",
          "type": "uint256"
        },
        {
          "internalType": "uint256",
          "name": "tierId",
          "type": "uint256"
        }
      ],
      "name": "claimTicket",
      "outputs": [],
      "stateMutability": "nonpayable",
      "type": "function"
    },
    {
      "inputs": [
        {
          "internalType": "uint256",
          "name": "eventId",
          "type": "uint256"
        },
        {
          "internalType": "uint256",
          "name": "tierId",
          "type": "uint256"
        },
        {
          "internalType": "address",
          "name": "",
          "type": "address"
        }
      ],
      "name": "claimed",
      "outputs": [
        {
          "internalType": "bool",
          "name": "",
          "type": "bool"
        }
      ],
      "stateMutability": "view",
      "type": "function"
    },
    {
      "inputs": [],
      "name": "entropyV2",
      "outputs": [
        {
          "internalType": "contract IEntropyV2",
          "name": "",
          "type": "address"
        }
      ],
      "stateMutability": "view",
      "type": "function"
    },
    {
      "inputs": [
        {
          "internalType": "uint256",
          "name": "",
          "type": "uint256"
        }
      ],
      "name": "eventAddresses",
      "outputs": [
        {
          "internalType": "address",
          "name": "",
          "type": "address"
        }
      ],
      "stateMutability": "view",
      "type": "function"
    },
    {
      "inputs": [],
      "name": "factory",
      "outputs": [
        {
          "internalType": "address",
          "name": "",
          "type": "address"
        }
      ],
      "stateMutability": "view",
      "type": "function"
    },
    {
      "inputs": [
        {
          "internalType": "uint256",
          "name": "eventId",
          "type": "uint256"
        },
        {
          "internalType": "uint256",
          "name": "tierId",
          "type": "uint256"
        }
      ],
      "name": "getBookingMetric",
      "outputs": [
        {
          "components": [
            {
              "internalType": "uint256",
              "name": "totalBookings",
              "type": "uint256"
            },
            {
              "internalType": "uint256",
              "name": "totalPremiumBookings",
              "type": "uint256"
            },
            {
              "internalType": "uint256",
              "name": "totalGenBookings",
              "type": "uint256"
            }
          ],
          "internalType": "struct IEvent.TierBookingMetric",
          "name": "",
          "type": "tuple"
        }
      ],
      "stateMutability": "view",
      "type": "function"
    },
    {
      "inputs": [
        {
          "internalType": "uint256",
          "name": "eventId",
          "type": "uint256"
        },
        {
          "internalType": "address",
          "name": "user",
          "type": "address"
        },
        {
          "internalType": "uint256",
          "name": "tierId",
          "type": "uint256"
        }
      ],
      "name": "isAlloted",
      "outputs": [
        {
          "internalType": "bool",
          "name": "",
          "type": "bool"
        }
      ],
      "stateMutability": "view",
      "type": "function"
    },
    {
      "inputs": [],
      "name": "nextEventId",
      "outputs": [
        {
          "internalType": "uint256",
          "name": "",
          "type": "uint256"
        }
      ],
      "stateMutability": "view",
      "type": "function"
    },
    {
      "inputs": [],
      "name": "owner",
      "outputs": [
        {
          "internalType": "address",
          "name": "",
          "type": "address"
        }
      ],
      "stateMutability": "view",
      "type": "function"
    },
    {
      "inputs": [
        {
          "internalType": "uint64",
          "name": "",
          "type": "uint64"
        }
      ],
      "name": "pendingSeeds",
      "outputs": [
        {
          "internalType": "uint256",
          "name": "eventId",
          "type": "uint256"
        },
        {
          "internalType": "uint256",
          "name": "tierId",
          "type": "uint256"
        }
      ],
      "stateMutability": "view",
      "type": "function"
    },
    {
      "inputs": [],
      "name": "pyUsd",
      "outputs": [
        {
          "internalType": "contract IERC20",
          "name": "",
          "type": "address"
        }
      ],
      "stateMutability": "view",
      "type": "function"
    },
    {
      "inputs": [
        {
          "internalType": "uint256",
          "name": "eventId",
          "type": "uint256"
        },
        {
          "internalType": "uint256",
          "name": "tierId",
          "type": "uint256"
        },
        {
          "internalType": "uint256",
          "name": "slot",
          "type": "uint256"
        }
      ],
      "name": "registerBooking",
      "outputs": [],
      "stateMutability": "nonpayable",
      "type": "function"
    },
    {
      "inputs": [
        {
          "internalType": "address",
          "name": "eventAddr",
          "type": "address"
        },
        {
          "internalType": "address",
          "name": "ticketNFTAddr",
          "type": "address"
        }
      ],
      "name": "registerEvent",
      "outputs": [
        {
          "internalType": "uint256",
          "name": "eventId",
          "type": "uint256"
        }
      ],
      "stateMutability": "nonpayable",
      "type": "function"
    },
    {
      "inputs": [],
      "name": "requestRandomNumber",
      "outputs": [],
      "stateMutability": "payable",
      "type": "function"
    },
    {
      "inputs": [
        {
          "internalType": "uint256",
          "name": "eventId",
          "type": "uint256"
        },
        {
          "internalType": "uint256[]",
          "name": "tierIds",
          "type": "uint256[]"
        }
      ],
      "name": "requestSeedAllotmentForEvent",
      "outputs": [],
      "stateMutability": "payable",
      "type": "function"
    },
    {
      "inputs": [
        {
          "internalType": "uint256",
          "name": "eventId",
          "type": "uint256"
        },
        {
          "internalType": "uint256",
          "name": "tierId",
          "type": "uint256"
        },
        {
          "internalType": "uint256",
          "name": "genSeed",
          "type": "uint256"
        },
        {
          "internalType": "uint256",
          "name": "premiumSeed",
          "type": "uint256"
        }
      ],
      "name": "seedAllotment",
      "outputs": [],
      "stateMutability": "nonpayable",
      "type": "function"
    },
    {
      "inputs": [
        {
          "internalType": "address",
          "name": "_factory",
          "type": "address"
        }
      ],
      "name": "setFactory",
      "outputs": [],
      "stateMutability": "nonpayable",
      "type": "function"
    },
    {
      "inputs": [
        {
          "internalType": "uint256",
          "name": "",
          "type": "uint256"
        }
      ],
      "name": "ticketNFTAddresses",
      "outputs": [
        {
          "internalType": "address",
          "name": "",
          "type": "address"
        }
      ],
      "stateMutability": "view",
      "type": "function"
    },
    {
      "inputs": [
        {
          "internalType": "uint256",
          "name": "eventId",
          "type": "uint256"
        },
        {
          "internalType": "uint256",
          "name": "tierId",
          "type": "uint256"
        },
        {
          "internalType": "uint256",
          "name": "slot",
          "type": "uint256"
        }
      ],
      "name": "unregisterBooking",
      "outputs": [],
      "stateMutability": "nonpayable",
      "type": "function"
    }
  ],
  "bytecode": "0x608060405234801561000f575f5ffd5b5060405161172e38038061172e83398101604081905261002e916100cc565b6001600160a01b0382166100755760405163eac0d38960e01b815260206004820152600960248201526822b73a3937b83cab1960b91b604482015260640160405180910390fd5b600180546001600160a01b03199081163317909155600380546001600160a01b03948516908316179055600480549290931691161790556100fd565b80516001600160a01b03811681146100c7575f5ffd5b919050565b5f5f604083850312156100dd575f5ffd5b6100e6836100b1565b91506100f4602084016100b1565b90509250929050565b6116248061010a5f395ff3fe6080604052600436106100ee575f3560e01c80633ea259c5146100f257806342d4728e1461012e57806347f5af8d1461014f57806352a5f1f81461019e5780635bb47808146101bd578063663ba7d0146101dc5780636e02fd6a1461020957806371d56f72146102285780637d688337146102475780638678a7b21461027b5780638d930483146102835780638da5cb5b146102a257806399b84c76146102c15780639f9d903a146102f5578063a2f660341461030a578063b2b5890314610351578063c45a015514610392578063e967d5b3146103b0578063ed06a740146103c3578063fb86f02c146103e2575b5f5ffd5b3480156100fd575f5ffd5b50600454610111906001600160a01b031681565b6040516001600160a01b0390911681526020015b60405180910390f35b348015610139575f5ffd5b5061014d6101483660046111a0565b610401565b005b34801561015a575f5ffd5b5061018e6101693660046111e4565b600860209081525f938452604080852082529284528284209052825290205460ff1681565b6040519015158152602001610125565b3480156101a9575f5ffd5b5061014d6101b836600461122d565b6105d7565b3480156101c8575f5ffd5b5061014d6101d7366004611268565b6106b1565b3480156101e7575f5ffd5b506101fb6101f6366004611288565b6106fc565b604051908152602001610125565b348015610214575f5ffd5b5061014d6102233660046111a0565b6107bd565b348015610233575f5ffd5b5061014d6102423660046112b9565b610855565b348015610252575f5ffd5b506101116102613660046112e8565b60066020525f90815260409020546001600160a01b031681565b61014d610918565b34801561028e575f5ffd5b50600354610111906001600160a01b031681565b3480156102ad575f5ffd5b50600154610111906001600160a01b031681565b3480156102cc575f5ffd5b506101116102db3660046112e8565b60056020525f90815260409020546001600160a01b031681565b348015610300575f5ffd5b506101fb60025481565b348015610315575f5ffd5b5061033c6103243660046112ff565b60076020525f90815260409020805460019091015482565b60408051928352602083019190915201610125565b34801561035c575f5ffd5b5061037061036b36600461131a565b610a0b565b6040805182518152602080840151908201529181015190820152606001610125565b34801561039d575f5ffd5b505f54610111906001600160a01b031681565b61014d6103be36600461137e565b610ad5565b3480156103ce575f5ffd5b5061014d6103dd36600461131a565b610d5e565b3480156103ed575f5ffd5b5061018e6103fc366004611434565b610f8d565b5f838152600560205260409020546001600160a01b0316806104365760405163afb6a7d160e01b815260040160405180910390fd5b604051636f21f9cb60e01b815260048101849052602481018390525f906001600160a01b03831690636f21f9cb90604401602060405180830381865afa158015610482573d5f5f3e3d5ffd5b505050506040513d601f19601f820116820180604052508101906104a69190611467565b604051637741d98360e11b81529091506001600160a01b0383169063ee83b306906104d99087908790339060040161147e565b5f604051808303815f87803b1580156104f0575f5ffd5b505af1158015610502573d5f5f3e3d5ffd5b5050600480546040516323b872dd60e01b815233928101929092526001600160a01b038681166024840152604483018690525f94501691506323b872dd906064016020604051808303815f875af115801561055f573d5f5f3e3d5ffd5b505050506040513d601f19601f82011682018060405250810190610583919061149d565b9050806105cf5760405162461bcd60e51b8152602060048201526015602482015274141e5554d1081d1c985b9cd9995c8819985a5b1959605a1b60448201526064015b60405180910390fd5b505050505050565b5f6105ea6003546001600160a01b031690565b90506001600160a01b03811661063c5760405162461bcd60e51b8152602060048201526017602482015276115b9d1c9bdc1e481859191c995cdcc81b9bdd081cd95d604a1b60448201526064016105c6565b336001600160a01b038216146106a05760405162461bcd60e51b815260206004820152602360248201527f4f6e6c7920456e74726f70792063616e2063616c6c20746869732066756e637460448201526234b7b760e91b60648201526084016105c6565b6106ab848484611038565b50505050565b6001546001600160a01b031633146106db576040516282b42960e81b815260040160405180910390fd5b5f80546001600160a01b0319166001600160a01b0392909216919091179055565b5f80546001600160a01b03163314610726576040516282b42960e81b815260040160405180910390fd5b6001600160a01b038316158061074357506001600160a01b038216155b156107615760405163afb6a7d160e01b815260040160405180910390fd5b60028054905f610770836114d0565b909155505f81815260056020908152604080832080546001600160a01b039889166001600160a01b0319918216179091556006909252909120805494909516931692909217909255919050565b5f838152600560205260409020546001600160a01b0316806107f25760405163afb6a7d160e01b815260040160405180910390fd5b604051632149ec6f60e11b81526001600160a01b03821690634293d8de906108229086908690339060040161147e565b5f604051808303815f87803b158015610839575f5ffd5b505af115801561084b573d5f5f3e3d5ffd5b5050505050505050565b6001546001600160a01b0316331461087f576040516282b42960e81b815260040160405180910390fd5b5f848152600560205260409020546001600160a01b0316806108b45760405163afb6a7d160e01b815260040160405180910390fd5b60405163075c899560e11b81526001600160a01b03821690630eb9132a906108e4908790879087906004016114e8565b5f604051808303815f87803b1580156108fb575f5ffd5b505af115801561090d573d5f5f3e3d5ffd5b505050505050505050565b600354604080516341025b3d60e11b815290515f926001600160a01b031691638204b67a9160048083019260209291908290030181865afa15801561095f573d5f5f3e3d5ffd5b505050506040513d601f19601f8201168201806040525081019061098391906114fe565b6001600160801b031690505f60035f9054906101000a90046001600160a01b03166001600160a01b0316637b43155d836040518263ffffffff1660e01b815260040160206040518083038185885af11580156109e1573d5f5f3e3d5ffd5b50505050506040513d601f19601f82011682018060405250810190610a069190611524565b505050565b610a2c60405180606001604052805f81526020015f81526020015f81525090565b5f838152600560205260409020546001600160a01b031680610a615760405163afb6a7d160e01b815260040160405180910390fd5b6040516302979c8760e61b8152600481018490525f906001600160a01b0383169063a5e721c090602401606060405180830381865afa158015610aa6573d5f5f3e3d5ffd5b505050506040513d601f19601f82011682018060405250810190610aca919061153f565b925050505b92915050565b6001546001600160a01b03163314610aff576040516282b42960e81b815260040160405180910390fd5b5f828152600560205260409020546001600160a01b031680610b345760405163afb6a7d160e01b815260040160405180910390fd5b81515f819003610b725760405163180a097760e01b81526020600482015260086024820152674e6f20746965727360c01b60448201526064016105c6565b600354604080516341025b3d60e11b815290515f926001600160a01b031691638204b67a9160048083019260209291908290030181865afa158015610bb9573d5f5f3e3d5ffd5b505050506040513d601f19601f82011682018060405250810190610bdd91906114fe565b6001600160801b031690505f610bf38383611597565b905080341015610c395760405163180a097760e01b815260206004820152601060248201526f496e73756666696369656e742066656560801b60448201526064016105c6565b5f5b83811015610d19575f60035f9054906101000a90046001600160a01b03166001600160a01b0316637b43155d856040518263ffffffff1660e01b815260040160206040518083038185885af1158015610c96573d5f5f3e3d5ffd5b50505050506040513d601f19601f82011682018060405250810190610cbb9190611524565b90506040518060400160405280898152602001888481518110610ce057610ce06115ae565b6020908102919091018101519091526001600160401b039092165f90815260078352604090208151815591015160019182015501610c3b565b50803411156105cf57336108fc610d3083346115c2565b6040518115909202915f818181858888f19350505050158015610d55573d5f5f3e3d5ffd5b50505050505050565b5f828152600560205260409020546001600160a01b031680610d935760405163afb6a7d160e01b815260040160405180910390fd5b806001600160a01b031663ba829d716040518163ffffffff1660e01b8152600401602060405180830381865afa158015610dcf573d5f5f3e3d5ffd5b505050506040513d601f19601f82011682018060405250810190610df39190611467565b421015610e365760405163180a097760e01b815260206004820152601060248201526f139bdd081c995d99585b1959081e595d60821b60448201526064016105c6565b60405163c355ca6160e01b81526001600160a01b0382169063c355ca6190610e6490339086906004016115d5565b602060405180830381865afa158015610e7f573d5f5f3e3d5ffd5b505050506040513d601f19601f82011682018060405250810190610ea3919061149d565b610ec05760405163024ae45b60e21b815260040160405180910390fd5b5f838152600860209081526040808320858452825280832033845290915290205460ff1615610f0257604051630c8d9eab60e31b815260040160405180910390fd5b5f83815260086020908152604080832085845282528083203384528252808320805460ff1916600117905585835260069091529020546001600160a01b031680610f5f5760405163afb6a7d160e01b815260040160405180910390fd5b6040516340c10f1960e01b81526001600160a01b038216906340c10f199061082290339087906004016115d5565b5f838152600560205260408120546001600160a01b031680610fc25760405163afb6a7d160e01b815260040160405180910390fd5b60405163c355ca6160e01b81526001600160a01b0382169063c355ca6190610ff090879087906004016115d5565b602060405180830381865afa15801561100b573d5f5f3e3d5ffd5b505050506040513d601f19601f8201168201806040525081019061102f919061149d565b95945050505050565b6001600160401b0383165f908152600760209081526040808320815180830190925280548083526001909101549282019290925291036110ae5760405163180a097760e01b815260206004820152601060248201526f556e6b6e6f776e2073657175656e636560801b60448201526064016105c6565b6020818101516040805192830185905282015282905f9060600160408051601f19818403018152918152815160209283012085515f90815260059093529120549091506001600160a01b0316806111185760405163afb6a7d160e01b815260040160405180910390fd5b602084015160405163075c899560e11b81526001600160a01b03831691630eb9132a9161114c9190879087906004016114e8565b5f604051808303815f87803b158015611163575f5ffd5b505af1158015611175573d5f5f3e3d5ffd5b5050506001600160401b039097165f9081526007602052604081208181556001015550505050505050565b5f5f5f606084860312156111b2575f5ffd5b505081359360208301359350604090920135919050565b80356001600160a01b03811681146111df575f5ffd5b919050565b5f5f5f606084860312156111f6575f5ffd5b833592506020840135915061120d604085016111c9565b90509250925092565b6001600160401b038116811461122a575f5ffd5b50565b5f5f5f6060848603121561123f575f5ffd5b833561124a81611216565b9250611258602085016111c9565b9150604084013590509250925092565b5f60208284031215611278575f5ffd5b611281826111c9565b9392505050565b5f5f60408385031215611299575f5ffd5b6112a2836111c9565b91506112b0602084016111c9565b90509250929050565b5f5f5f5f608085870312156112cc575f5ffd5b5050823594602084013594506040840135936060013592509050565b5f602082840312156112f8575f5ffd5b5035919050565b5f6020828403121561130f575f5ffd5b813561128181611216565b5f5f6040838503121561132b575f5ffd5b50508035926020909101359150565b634e487b7160e01b5f52604160045260245ffd5b604051601f8201601f191681016001600160401b03811182821017156113765761137661133a565b604052919050565b5f5f6040838503121561138f575f5ffd5b8235915060208301356001600160401b038111156113ab575f5ffd5b8301601f810185136113bb575f5ffd5b80356001600160401b038111156113d4576113d461133a565b8060051b6113e46020820161134e565b918252602081840181019290810190888411156113ff575f5ffd5b6020850194505b8385101561142557843580835260209586019590935090910190611406565b80955050505050509250929050565b5f5f5f60608486031215611446575f5ffd5b83359250611456602085016111c9565b929592945050506040919091013590565b5f60208284031215611477575f5ffd5b5051919050565b92835260208301919091526001600160a01b0316604082015260600190565b5f602082840312156114ad575f5ffd5b81518015158114611281575f5ffd5b634e487b7160e01b5f52601160045260245ffd5b5f600182016114e1576114e16114bc565b5060010190565b9283526020830191909152604082015260600190565b5f6020828403121561150e575f5ffd5b81516001600160801b0381168114611281575f5ffd5b5f60208284031215611534575f5ffd5b815161128181611216565b5f6060828403128015611550575f5ffd5b50604051606081016001600160401b03811182821017156115735761157361133a565b60409081528351825260208085015190830152928301519281019290925250919050565b8082028115828204841417610acf57610acf6114bc565b634e487b7160e01b5f52603260045260245ffd5b81810381811115610acf57610acf6114bc565b6001600160a01b0392909216825260208201526040019056fea2646970667358221220f5a986382047918973a20ac35ce19277c17ea33c2c740d8c2fda553904944e4d64736f6c634300081c0033",
  "linkReferences": {},
  "deployedLinkReferences": {},
  "immutableReferences": {},
  "inputSourceName": "project/contracts/EventRouter.sol",
  "buildInfoId": "solc-0_8_28-da2d5c368c6507955425f17e570192c6bbd45ce3"
}