{
  "_format": "hh3-artifact-1",
  "contractName": "EventFactory",
  "sourceName": "contracts/EventFactory.sol",
  "abi": [
    {
      "inputs": [
        {
          "internalType": "address",
          "name": "_pyusd",
          "type": "address"
        },
        {
          "internalType": "address",
          "name": "_router",
          "type": "address"
        }
      ],
      "stateMutability": "nonpayable",
      "type": "constructor"
    },
    {
      "inputs": [
        {
          "internalType": "address",
          "name": "owner",
          "type": "address"
        }
      ],
      "name": "OwnableInvalidOwner",
      "type": "error"
    },
    {
      "inputs": [
        {
          "internalType": "address",
          "name": "account",
          "type": "address"
        }
      ],
      "name": "OwnableUnauthorizedAccount",
      "type": "error"
    },
    {
      "anonymous": false,
      "inputs": [
        {
          "indexed": true,
          "internalType": "address",
          "name": "previousOwner",
          "type": "address"
        },
        {
          "indexed": true,
          "internalType": "address",
          "name": "newOwner",
          "type": "address"
        }
      ],
      "name": "OwnershipTransferred",
      "type": "event"
    },
    {
      "inputs": [
        {
          "internalType": "string",
          "name": "_name",
          "type": "string"
        },
        {
          "internalType": "uint256",
          "name": "_saleStartTime",
          "type": "uint256"
        },
        {
          "internalType": "uint256",
          "name": "_saleEndTime",
          "type": "uint256"
        },
        {
          "internalType": "uint256",
          "name": "_revealTime",
          "type": "uint256"
        },
        {
          "internalType": "uint256[]",
          "name": "_tierIds",
          "type": "uint256[]"
        },
        {
          "components": [
            {
              "internalType": "uint256",
              "name": "genPrice",
              "type": "uint256"
            },
            {
              "internalType": "uint256",
              "name": "premiumPrice",
              "type": "uint256"
            },
            {
              "internalType": "uint256",
              "name": "maxSupply",
              "type": "uint256"
            },
            {
              "internalType": "uint256",
              "name": "premiumMaxSupply",
              "type": "uint256"
            },
            {
              "internalType": "uint256",
              "name": "genSeed",
              "type": "uint256"
            },
            {
              "internalType": "uint256",
              "name": "premiumSeed",
              "type": "uint256"
            }
          ],
          "internalType": "struct Event.TierData[]",
          "name": "_tierDataArray",
          "type": "tuple[]"
        },
        {
          "internalType": "string",
          "name": "_metadataUri",
          "type": "string"
        }
      ],
      "name": "createEvent",
      "outputs": [
        {
          "internalType": "uint256",
          "name": "",
          "type": "uint256"
        }
      ],
      "stateMutability": "nonpayable",
      "type": "function"
    },
    {
      "inputs": [],
      "name": "owner",
      "outputs": [
        {
          "internalType": "address",
          "name": "",
          "type": "address"
        }
      ],
      "stateMutability": "view",
      "type": "function"
    },
    {
      "inputs": [],
      "name": "pyusd",
      "outputs": [
        {
          "internalType": "address",
          "name": "",
          "type": "address"
        }
      ],
      "stateMutability": "view",
      "type": "function"
    },
    {
      "inputs": [],
      "name": "renounceOwnership",
      "outputs": [],
      "stateMutability": "nonpayable",
      "type": "function"
    },
    {
      "inputs": [],
      "name": "router",
      "outputs": [
        {
          "internalType": "address",
          "name": "",
          "type": "address"
        }
      ],
      "stateMutability": "view",
      "type": "function"
    },
    {
      "inputs": [
        {
          "internalType": "address",
          "name": "newOwner",
          "type": "address"
        }
      ],
      "name": "transferOwnership",
      "outputs": [],
      "stateMutability": "nonpayable",
      "type": "function"
    }
  ],
  "bytecode": "0x60c060405234801561000f575f5ffd5b506040516148c53803806148c583398101604081905261002e916100de565b338061005357604051631e4fbdf760e01b81525f600482015260240160405180910390fd5b61005c81610074565b506001600160a01b039182166080521660a05261010f565b5f80546001600160a01b038381166001600160a01b0319831681178455604051919092169283917f8be0079c531659141344cd1fd0a4f28419497f9722a3daafe3b4186f6b6457e09190a35050565b80516001600160a01b03811681146100d9575f5ffd5b919050565b5f5f604083850312156100ef575f5ffd5b6100f8836100c3565b9150610106602084016100c3565b90509250929050565b60805160a05161477b61014a5f395f818160ec01528181610213015281816102b1015261033501525f818160690152610290015261477b5ff3fe608060405234801561000f575f5ffd5b5060043610610060575f3560e01c806322e669d314610064578063715018a6146100a1578063777cd152146100ab5780638da5cb5b146100cc578063f2fde38b146100d4578063f887ea40146100e7575b5f5ffd5b61008b7f000000000000000000000000000000000000000000000000000000000000000081565b6040516100989190610497565b60405180910390f35b6100a961010e565b005b6100be6100b93660046106b6565b610121565b604051908152602001610098565b61008b6103b1565b6100a96100e2366004610786565b6103bf565b61008b7f000000000000000000000000000000000000000000000000000000000000000081565b6101166103fc565b61011f5f61042e565b565b5f61012a6103fc565b83518351811461017c5760405162461bcd60e51b81526020600482015260186024820152774d69736d6174636820696e2074696572206c656e6774687360401b60448201526064015b60405180910390fd5b5f816001600160401b03811115610195576101956104ab565b6040519080825280602002602001820160405280156101be578160200160208202803683370190505b5090505f5b8281101561020e578581815181106101dd576101dd6107b3565b6020026020010151604001518282815181106101fb576101fb6107b3565b60209081029190910101526001016101c3565b505f847f000000000000000000000000000000000000000000000000000000000000000088846040516102409061047d565b61024d949392919061082f565b604051809103905ff080158015610266573d5f5f3e3d5ffd5b5090505f60405180608001604052808d81526020018c81526020018b81526020018a81525090505f7f00000000000000000000000000000000000000000000000000000000000000007f000000000000000000000000000000000000000000000000000000000000000033848c8c6040516102e09061048a565b6102ef969594939291906108eb565b604051809103905ff080158015610308573d5f5f3e3d5ffd5b50604051630663ba7d60e41b81526001600160a01b03808316600483015285811660248301529192505f917f0000000000000000000000000000000000000000000000000000000000000000169063663ba7d0906044016020604051808303815f875af115801561037b573d5f5f3e3d5ffd5b505050506040513d601f19601f8201168201806040525081019061039f9190610980565b9e9d5050505050505050505050505050565b5f546001600160a01b031690565b6103c76103fc565b6001600160a01b0381166103f0575f604051631e4fbdf760e01b81526004016101739190610497565b6103f98161042e565b50565b336104056103b1565b6001600160a01b03161461011f573360405163118cdaa760e01b81526004016101739190610497565b5f80546001600160a01b038381166001600160a01b0319831681178455604051919092169283917f8be0079c531659141344cd1fd0a4f28419497f9722a3daafe3b4186f6b6457e09190a35050565b6118778061099883390190565b6125378061220f83390190565b6001600160a01b0391909116815260200190565b634e487b7160e01b5f52604160045260245ffd5b60405160c081016001600160401b03811182821017156104e1576104e16104ab565b60405290565b604051601f8201601f191681016001600160401b038111828210171561050f5761050f6104ab565b604052919050565b5f82601f830112610526575f5ffd5b81356001600160401b0381111561053f5761053f6104ab565b610552601f8201601f19166020016104e7565b818152846020838601011115610566575f5ffd5b816020850160208301375f918101602001919091529392505050565b5f6001600160401b0382111561059a5761059a6104ab565b5060051b60200190565b5f82601f8301126105b3575f5ffd5b81356105c66105c182610582565b6104e7565b8082825260208201915060208360051b8601019250858311156105e7575f5ffd5b602085015b838110156106045780358352602092830192016105ec565b5095945050505050565b5f82601f83011261061d575f5ffd5b813561062b6105c182610582565b80828252602082019150602060c0840286010192508583111561064c575f5ffd5b602085015b838110156106045760c08188031215610668575f5ffd5b6106706104bf565b813581526020808301358183015260408084013590830152606080840135908301526080808401359083015260a08084013590830152908452929092019160c001610651565b5f5f5f5f5f5f5f60e0888a0312156106cc575f5ffd5b87356001600160401b038111156106e1575f5ffd5b6106ed8a828b01610517565b97505060208801359550604088013594506060880135935060808801356001600160401b0381111561071d575f5ffd5b6107298a828b016105a4565b93505060a08801356001600160401b03811115610744575f5ffd5b6107508a828b0161060e565b92505060c08801356001600160401b0381111561076b575f5ffd5b6107778a828b01610517565b91505092959891949750929550565b5f60208284031215610796575f5ffd5b81356001600160a01b03811681146107ac575f5ffd5b9392505050565b634e487b7160e01b5f52603260045260245ffd5b5f81518084528060208401602086015e5f602082860101526020601f19601f83011685010191505092915050565b5f8151808452602084019350602083015f5b82811015610825578151865260209586019590910190600101610807565b5093949350505050565b608081525f61084160808301876107c7565b6001600160a01b0386166020840152828103604084015261086281866107f5565b9050828103606084015261087681856107f5565b979650505050505050565b5f8151808452602084019350602083015f5b82811015610825578151805187526020810151602088015260408101516040880152606081015160608801526080810151608088015260a081015160a08801525060c086019550602082019150600181019050610893565b6001600160a01b03878116825286811660208301528516604082015260c06060820181905284516080918301919091525f9061092b6101408401826107c7565b9050602086015160e084015260408601516101008401526060860151610120840152828103608084015261095f81866107f5565b905082810360a08401526109738185610881565b9998505050505050505050565b5f60208284031215610990575f5ffd5b505191905056fe60a060405234801561000f575f5ffd5b5060405161187738038061187783398101604081905261002e91610253565b8361003881610165565b506001600160a01b0383166100605760405163d92e233d60e01b815260040160405180910390fd5b8051825114610085576040516001621398b960e31b0319815260040160405180910390fd5b81515f036100a6576040516301e135f760e31b815260040160405180910390fd5b6001600160a01b0383166080525f5b825181101561015b575f8382815181106100d1576100d161034b565b602002602001015190505f8383815181106100ee576100ee61034b565b60200260200101519050805f036101185760405163dd616a4560e01b815260040160405180910390fd5b5f828152600360205260409020541561014457604051630a2e201560e11b815260040160405180910390fd5b5f91825260036020526040909120556001016100b5565b505050505061049d565b600261017182826103e3565b5050565b634e487b7160e01b5f52604160045260245ffd5b604051601f8201601f191681016001600160401b03811182821017156101b1576101b1610175565b604052919050565b80516001600160a01b03811681146101cf575f5ffd5b919050565b5f82601f8301126101e3575f5ffd5b81516001600160401b038111156101fc576101fc610175565b8060051b61020c60208201610189565b91825260208185018101929081019086841115610227575f5ffd5b6020860192505b8383101561024957825182526020928301929091019061022e565b9695505050505050565b5f5f5f5f60808587031215610266575f5ffd5b84516001600160401b0381111561027b575f5ffd5b8501601f8101871361028b575f5ffd5b80516001600160401b038111156102a4576102a4610175565b6102b7601f8201601f1916602001610189565b8181528860208385010111156102cb575f5ffd5b8160208401602083015e5f602083830101528096505050506102ef602086016101b9565b60408601519093506001600160401b0381111561030a575f5ffd5b610316878288016101d4565b606087015190935090506001600160401b03811115610333575f5ffd5b61033f878288016101d4565b91505092959194509250565b634e487b7160e01b5f52603260045260245ffd5b600181811c9082168061037357607f821691505b60208210810361039157634e487b7160e01b5f52602260045260245ffd5b50919050565b601f8211156103de57805f5260205f20601f840160051c810160208510156103bc5750805b601f840160051c820191505b818110156103db575f81556001016103c8565b50505b505050565b81516001600160401b038111156103fc576103fc610175565b6104108161040a845461035f565b84610397565b6020601f821160018114610442575f831561042b5750848201515b5f19600385901b1c1916600184901b1784556103db565b5f84815260208120601f198516915b828110156104715787850151825560209485019460019092019101610451565b508482101561048e57868401515f19600387901b60f8161c191681555b50505050600190811b01905550565b6080516113bc6104bb5f395f818160f3015261031401526113bc5ff3fe608060405234801561000f575f5ffd5b50600436106100a1575f3560e01c8062fdd58e146100a557806301ffc9a7146100cb57806307546172146100ee5780630e89341c146101225780632eb2c2d61461014257806340c10f19146101575780634b47dc961461016a5780634e1273f414610189578063a22cb465146101a9578063b4b7601b146101bc578063e985e9c5146101db578063f242432a146101ee575b5f5ffd5b6100b86100b3366004610d46565b610201565b6040519081526020015b60405180910390f35b6100de6100d9366004610d86565b610228565b60405190151581526020016100c2565b6101157f000000000000000000000000000000000000000000000000000000000000000081565b6040516100c29190610da8565b610135610130366004610dbc565b610277565b6040516100c29190610e01565b610155610150366004610f4e565b6102a8565b005b610155610165366004610d46565b610309565b6100b8610178366004610dbc565b60036020525f908152604090205481565b61019c610197366004610ffa565b610417565b6040516100c291906110f5565b6101556101b7366004611107565b6104dd565b6100b86101ca366004610dbc565b60046020525f908152604090205481565b6100de6101e9366004611140565b6104ec565b6101556101fc366004611171565b610519565b5f818152602081815260408083206001600160a01b03861684529091529020545b92915050565b5f6001600160e01b03198216636cdb3d1360e11b148061025857506001600160e01b031982166303a24d0760e21b145b8061022257506301ffc9a760e01b6001600160e01b0319831614610222565b606061028282610569565b60405160200161029291906111c4565b6040516020818303038152906040529050919050565b336001600160a01b03861681148015906102c957506102c786826104ec565b155b156102f457808660405163711bec9160e11b81526004016102eb929190611250565b60405180910390fd5b61030186868686866105f8565b505050505050565b336001600160a01b037f000000000000000000000000000000000000000000000000000000000000000016146103525760405163045241dd60e01b815260040160405180910390fd5b6001600160a01b0382166103795760405163d92e233d60e01b815260040160405180910390fd5b5f81815260036020526040812054908190036103a85760405163f5f9fe1b60e01b815260040160405180910390fd5b5f828152600460205260409020548181106103d657604051631612c88f60e31b815260040160405180910390fd5b6103e181600161126a565b60045f8581526020019081526020015f20819055506104118484600160405180602001604052805f81525061065d565b50505050565b606081518351146104485781518351604051635b05999160e01b8152600481019290925260248201526044016102eb565b5f83516001600160401b0381111561046257610462610e13565b60405190808252806020026020018201604052801561048b578160200160208202803683370190505b5090505f5b84518110156104d5576104b06104a686836106a3565b6100b386846106a3565b8282815181106104c2576104c2611289565b6020908102919091010152600101610490565b509392505050565b6104e83383836106b1565b5050565b6001600160a01b039182165f90815260016020908152604080832093909416825291909152205460ff1690565b336001600160a01b038616811480159061053a575061053886826104ec565b155b1561055c57808660405163711bec9160e11b81526004016102eb929190611250565b6103018686868686610745565b60605f610575836107bc565b60010190505f816001600160401b0381111561059357610593610e13565b6040519080825280601f01601f1916602001820160405280156105bd576020820181803683370190505b5090508181016020015b5f19016f181899199a1a9b1b9c1cb0b131b232b360811b600a86061a8153600a85049450846105c757509392505050565b6001600160a01b038416610621575f604051632bfa23e760e11b81526004016102eb9190610da8565b6001600160a01b038516610649575f604051626a0d4560e21b81526004016102eb9190610da8565b6106568585858585610891565b5050505050565b6001600160a01b038416610686575f604051632bfa23e760e11b81526004016102eb9190610da8565b5f5f61069285856108f4565b915091506103015f87848487610891565b602090810291909101015190565b6001600160a01b0382166106d9575f60405162ced3e160e81b81526004016102eb9190610da8565b6001600160a01b038381165f81815260016020908152604080832094871680845294825291829020805460ff191686151590811790915591519182527f17307eab39ab6107e8899845ad3d59bd9653f200f220920489ca2b5937696c31910160405180910390a3505050565b6001600160a01b03841661076e575f604051632bfa23e760e11b81526004016102eb9190610da8565b6001600160a01b038516610796575f604051626a0d4560e21b81526004016102eb9190610da8565b5f5f6107a285856108f4565b915091506107b38787848487610891565b50505050505050565b5f8072184f03e93ff9f4daa797ed6e38ed64bf6a1f0160401b83106107fa5772184f03e93ff9f4daa797ed6e38ed64bf6a1f0160401b830492506040015b6904ee2d6d415b85acef8160201b8310610824576904ee2d6d415b85acef8160201b830492506020015b662386f26fc10000831061084257662386f26fc10000830492506010015b6305f5e100831061085a576305f5e100830492506008015b612710831061086e57612710830492506004015b60648310610880576064830492506002015b600a83106102225760010192915050565b61089d8585858561091c565b6001600160a01b0384161561065657825133906001036108e6575f6108c285826106a3565b90505f6108cf85826106a3565b90506108df838989858589610b3e565b5050610301565b610301818787878787610c4d565b6040805160018082526020820194909452808201938452606081019290925260808201905291565b805182511461094b5781518151604051635b05999160e01b8152600481019290925260248201526044016102eb565b335f5b8351811015610a55575f61096285836106a3565b90505f61096f85846106a3565b90506001600160a01b03881615610a07575f828152602081815260408083206001600160a01b038c168452909152902054818110156109e1576040516303dee4c560e01b81526001600160a01b038a1660048201526024810182905260448101839052606481018490526084016102eb565b5f838152602081815260408083206001600160a01b038d16845290915290209082900390555b6001600160a01b03871615610a4b575f828152602081815260408083206001600160a01b038b16845290915281208054839290610a4590849061126a565b90915550505b505060010161094e565b508251600103610ae0575f610a6a84826106a3565b90505f610a7784826106a3565b9050856001600160a01b0316876001600160a01b0316846001600160a01b03167fc3d58168c5ae7397731d063d5bbf3d657854427343f4c083240f7aacaa2d0f628585604051610ad1929190918252602082015260400190565b60405180910390a45050610656565b836001600160a01b0316856001600160a01b0316826001600160a01b03167f4a39dc06d4c0dbc64b70af90fd698a233a518aa5d07e595d983b8c0526c8f7fb8686604051610b2f92919061129d565b60405180910390a45050505050565b6001600160a01b0384163b156103015760405163f23a6e6160e01b81526001600160a01b0385169063f23a6e6190610b8290899089908890889088906004016112ca565b6020604051808303815f875af1925050508015610bbc575060408051601f3d908101601f19168201909252610bb99181019061130e565b60015b610c1a573d808015610be9576040519150601f19603f3d011682016040523d82523d5f602084013e610bee565b606091505b5080515f03610c125784604051632bfa23e760e11b81526004016102eb9190610da8565b805160208201fd5b6001600160e01b0319811663f23a6e6160e01b146107b35784604051632bfa23e760e11b81526004016102eb9190610da8565b6001600160a01b0384163b156103015760405163bc197c8160e01b81526001600160a01b0385169063bc197c8190610c919089908990889088908890600401611329565b6020604051808303815f875af1925050508015610ccb575060408051601f3d908101601f19168201909252610cc89181019061130e565b60015b610cf8573d808015610be9576040519150601f19603f3d011682016040523d82523d5f602084013e610bee565b6001600160e01b0319811663bc197c8160e01b146107b35784604051632bfa23e760e11b81526004016102eb9190610da8565b80356001600160a01b0381168114610d41575f5ffd5b919050565b5f5f60408385031215610d57575f5ffd5b610d6083610d2b565b946020939093013593505050565b6001600160e01b031981168114610d83575f5ffd5b50565b5f60208284031215610d96575f5ffd5b8135610da181610d6e565b9392505050565b6001600160a01b0391909116815260200190565b5f60208284031215610dcc575f5ffd5b5035919050565b5f81518084528060208401602086015e5f602082860101526020601f19601f83011685010191505092915050565b602081525f610da16020830184610dd3565b634e487b7160e01b5f52604160045260245ffd5b604051601f8201601f191681016001600160401b0381118282101715610e4f57610e4f610e13565b604052919050565b5f6001600160401b03821115610e6f57610e6f610e13565b5060051b60200190565b5f82601f830112610e88575f5ffd5b8135610e9b610e9682610e57565b610e27565b8082825260208201915060208360051b860101925085831115610ebc575f5ffd5b602085015b83811015610ed9578035835260209283019201610ec1565b5095945050505050565b5f82601f830112610ef2575f5ffd5b81356001600160401b03811115610f0b57610f0b610e13565b610f1e601f8201601f1916602001610e27565b818152846020838601011115610f32575f5ffd5b816020850160208301375f918101602001919091529392505050565b5f5f5f5f5f60a08688031215610f62575f5ffd5b610f6b86610d2b565b9450610f7960208701610d2b565b935060408601356001600160401b03811115610f93575f5ffd5b610f9f88828901610e79565b93505060608601356001600160401b03811115610fba575f5ffd5b610fc688828901610e79565b92505060808601356001600160401b03811115610fe1575f5ffd5b610fed88828901610ee3565b9150509295509295909350565b5f5f6040838503121561100b575f5ffd5b82356001600160401b03811115611020575f5ffd5b8301601f81018513611030575f5ffd5b803561103e610e9682610e57565b8082825260208201915060208360051b85010192508783111561105f575f5ffd5b6020840193505b828410156110885761107784610d2b565b825260209384019390910190611066565b945050505060208301356001600160401b038111156110a5575f5ffd5b6110b185828601610e79565b9150509250929050565b5f8151808452602084019350602083015f5b828110156110eb5781518652602095860195909101906001016110cd565b5093949350505050565b602081525f610da160208301846110bb565b5f5f60408385031215611118575f5ffd5b61112183610d2b565b915060208301358015158114611135575f5ffd5b809150509250929050565b5f5f60408385031215611151575f5ffd5b61115a83610d2b565b915061116860208401610d2b565b90509250929050565b5f5f5f5f5f60a08688031215611185575f5ffd5b61118e86610d2b565b945061119c60208701610d2b565b9350604086013592506060860135915060808601356001600160401b03811115610fe1575f5ffd5b7f68747470733a2f2f697066732e696f2f697066732f62616679626569686a6a6b81527f77647278786a6e757765766c7174716d683369656763616463333273696f34776020820152706d6f37627632676266333471733334612f60781b60408201525f82518060208501605185015e64173539b7b760d91b6051939091019283015250605601919050565b6001600160a01b0392831681529116602082015260400190565b8082018082111561022257634e487b7160e01b5f52601160045260245ffd5b634e487b7160e01b5f52603260045260245ffd5b604081525f6112af60408301856110bb565b82810360208401526112c181856110bb565b95945050505050565b6001600160a01b03868116825285166020820152604081018490526060810183905260a0608082018190525f9061130390830184610dd3565b979650505050505050565b5f6020828403121561131e575f5ffd5b8151610da181610d6e565b6001600160a01b0386811682528516602082015260a0604082018190525f90611354908301866110bb565b828103606084015261136681866110bb565b9050828103608084015261137a8185610dd3565b9897505050505050505056fea2646970667358221220328861bf67bb6a96ddb5ea505bae3d5c0c8654f87d85e8fcb4ec803f83355ca764736f6c634300081c0033608060405234801561000f575f5ffd5b5060405161253738038061253783398101604081905261002e916106ce565b8251515f03610050576040516367a4129960e11b815260040160405180910390fd5b6001600160a01b0386166100945760405163eac0d38960e01b815260206004820152600560248201526414165554d160da1b60448201526064015b60405180910390fd5b6001600160a01b0385166100d45760405163eac0d38960e01b81526020600482015260066024820152652937baba32b960d11b604482015260640161008b565b6001600160a01b0384166101135760405163eac0d38960e01b815260206004820152600560248201526427bbb732b960d91b604482015260640161008b565b82602001515f036101575760405163180a097760e01b815260206004820152600d60248201526c53616c65537461727454696d6560981b604482015260640161008b565b82602001518360400151116101af5760405163180a097760e01b815260206004820152601e60248201527f5f73616c65456e6454696d65203c3d205f73616c65537461727454696d650000604482015260640161008b565b82604001518360600151116102075760405163180a097760e01b815260206004820152601b60248201527f5f72657665616c54696d65203c3d205f73616c65456e6454696d650000000000604482015260640161008b565b81515f0361024c5760405163180a097760e01b8152602060048201526011602482015270139bc81d1a595c9cc81c1c9bdd9a591959607a1b604482015260640161008b565b80518251146102905760405163180a097760e01b815260206004820152600f60248201526e0d8cadccee8d040dad2e6dac2e8c6d608b1b604482015260640161008b565b82515f9061029e90826108b7565b50600180546001600160a01b038089166001600160a01b0319928316179092556007805488841690831617905560088054928716929091169190911790556020830151600255604083015160035560608301516004555f5b82518110156104e5575f83828151811061031257610312610971565b602002602001015190505f83838151811061032f5761032f610971565b60200260200101519050805f01515f0361035c57604051634dfba02360e01b815260040160405180910390fd5b80602001515f0361038057604051634dfba02360e01b815260040160405180910390fd5b8051602082015110156103d65760405163180a097760e01b815260206004820152601760248201527f5072656d69756d5072696365203c2047656e5072696365000000000000000000604482015260640161008b565b80604001515f036103fa5760405163c16f3a9360e01b815260040160405180910390fd5b80606001515f036104415760405163180a097760e01b815260206004820152601060248201526f5072656d69756d4d6178537570706c7960801b604482015260640161008b565b5f82815260096020526040902060020154156104945760405163180a097760e01b8152602060048201526011602482015270111d5c1b1a58d85d19481d1a595c881251607a1b604482015260640161008b565b5f918252600960209081526040928390208251815590820151600180830191909155928201516002820155606082015160038201556080820151600482015560a090910151600590910155016102f6565b50505050505050610985565b80516001600160a01b0381168114610507575f5ffd5b919050565b634e487b7160e01b5f52604160045260245ffd5b60405160c081016001600160401b03811182821017156105425761054261050c565b60405290565b604051608081016001600160401b03811182821017156105425761054261050c565b604051601f8201601f191681016001600160401b03811182821017156105925761059261050c565b604052919050565b5f6001600160401b038211156105b2576105b261050c565b5060051b60200190565b5f82601f8301126105cb575f5ffd5b81516105de6105d98261059a565b61056a565b8082825260208201915060208360051b8601019250858311156105ff575f5ffd5b602085015b8381101561061c578051835260209283019201610604565b5095945050505050565b5f82601f830112610635575f5ffd5b81516106436105d98261059a565b80828252602082019150602060c08402860101925085831115610664575f5ffd5b602085015b8381101561061c5760c08188031215610680575f5ffd5b610688610520565b815181526020808301518183015260408084015190830152606080840151908301526080808401519083015260a08084015190830152908452929092019160c001610669565b5f5f5f5f5f5f60c087890312156106e3575f5ffd5b6106ec876104f1565b95506106fa602088016104f1565b9450610708604088016104f1565b60608801519094506001600160401b03811115610723575f5ffd5b87016080818a031215610734575f5ffd5b61073c610548565b81516001600160401b03811115610751575f5ffd5b8201601f81018b13610761575f5ffd5b80516001600160401b0381111561077a5761077a61050c565b61078d601f8201601f191660200161056a565b8181528c60208385010111156107a1575f5ffd5b8160208401602083015e5f60209282018301528352838101519083015250604080830151908201526060918201519181019190915260808801519093506001600160401b038111156107f1575f5ffd5b6107fd89828a016105bc565b60a089015190935090506001600160401b0381111561081a575f5ffd5b61082689828a01610626565b9150509295509295509295565b600181811c9082168061084757607f821691505b60208210810361086557634e487b7160e01b5f52602260045260245ffd5b50919050565b601f8211156108b257805f5260205f20601f840160051c810160208510156108905750805b601f840160051c820191505b818110156108af575f815560010161089c565b50505b505050565b81516001600160401b038111156108d0576108d061050c565b6108e4816108de8454610833565b8461086b565b6020601f821160018114610916575f83156108ff5750848201515b5f19600385901b1c1916600184901b1784556108af565b5f84815260208120601f198516915b828110156109455787850151825560209485019460019092019101610925565b508482101561096257868401515f19600387901b60f8161c191681555b50505050600190811b01905550565b634e487b7160e01b5f52603260045260245ffd5b611ba5806109925f395ff3fe608060405234801561000f575f5ffd5b50600436106100ad575f3560e01c80630c9138e6146100b15780630eb9132a1461011857806313af40351461012d57806322e669d3146101405780633268cc561461016b5780633e750b9f1461017e57806341cb87fc146101ae5780634293d8de146101c15780636f21f9cb146101d4578063a5e721c0146101e7578063c355ca611461022d578063dde8096a14610250578063ee83b30614610263575b5f5ffd5b6100c46100bf366004611890565b610276565b60405161010f91905f60c082019050825182526020830151602083015260408301516040830152606083015160608301526080830151608083015260a083015160a083015292915050565b60405180910390f35b61012b6101263660046118a7565b610301565b005b61012b61013b3660046118eb565b6104ac565b600154610153906001600160a01b031681565b6040516001600160a01b03909116815260200161010f565b600754610153906001600160a01b031681565b6101a061018c366004611890565b5f908152600a602052604090206003015490565b60405190815260200161010f565b61012b6101bc3660046118eb565b610537565b61012b6101cf366004611904565b6105c3565b6101a06101e2366004611936565b610c0a565b6101fa6101f5366004611890565b610c3f565b60405161010f91908151815260208083015190820152604080830151908201526060918201519181019190915260800190565b61024061023b366004611956565b610caa565b604051901515815260200161010f565b61012b61025e366004611890565b610e3e565b61012b610271366004611904565b6111a5565b6102a96040518060c001604052805f81526020015f81526020015f81526020015f81526020015f81526020015f81525090565b505f90815260096020908152604091829020825160c08101845281548152600182015492810192909252600281015492820192909252600382015460608201526004820154608082015260059091015460a082015290565b6007546001600160a01b0316331461032b576040516282b42960e81b815260040160405180910390fd5b6003544210156103725760405163180a097760e01b815260206004820152600c60248201526b53616c65206f6e676f696e6760a01b60448201526064015b60405180910390fd5b815f036103ae5760405163180a097760e01b8152602060048201526009602482015268047656e5365656420360bc1b6044820152606401610369565b805f036103ee5760405163180a097760e01b815260206004820152600d60248201526c05072656d69756d53656564203609c1b6044820152606401610369565b5f838152600960209081526040808320815160c08101835281548152600182015493810193909352600281015491830182905260038101546060840152600481015460808401526005015460a083015290910361045e5760405163180a097760e01b81526004016103699061197e565b6080810192835260a081019182525f93845260096020908152604094859020825181559082015160018201559381015160028501556060015160038401559051600483015551600590910155565b6008546001600160a01b031633146104d6576040516282b42960e81b815260040160405180910390fd5b6001600160a01b0381166105155760405163eac0d38960e01b815260206004820152600560248201526427bbb732b960d91b6044820152606401610369565b600880546001600160a01b0319166001600160a01b0392909216919091179055565b6008546001600160a01b03163314610561576040516282b42960e81b815260040160405180910390fd5b6001600160a01b0381166105a15760405163eac0d38960e01b81526020600482015260066024820152652937baba32b960d11b6044820152606401610369565b600780546001600160a01b0319166001600160a01b0392909216919091179055565b6007546001600160a01b031633146105ed576040516282b42960e81b815260040160405180910390fd5b600354421061062c5760405163180a097760e01b815260206004820152600a60248201526914d85b1948195b99195960b21b6044820152606401610369565b600182111561064e5760405163180a097760e01b8152600401610369906119a6565b6001600160a01b0381166106755760405163eac0d38960e01b8152600401610369906119cc565b5f838152600960209081526040808320815160c08101835281548152600182015493810193909352600281015491830182905260038101546060840152600481015460808401526005015460a08301529091036106e55760405163180a097760e01b81526004016103699061197e565b5f848152600a602090815260408083206001600160a01b0386168452600c835281842088855283528184208251606081018452815481526001820154948101949094526002015460ff16151591830191909152918581036107a75781602001515f0361078f5760405163180a097760e01b8152602060048201526018602482015277139bc81c1c995b5a5d5b48189bdbdada5b99c8199bdd5b9960421b6044820152606401610369565b600182602001516107a091906119fe565b9050610800565b81515f036107ef5760405163180a097760e01b8152602060048201526014602482015273139bc819d95b88189bdbdada5b99c8199bdd5b9960621b6044820152606401610369565b81516107fd906001906119fe565b90505b5f878152600b6020908152604080832089845290915290208054821015806108565750856001600160a01b031681838154811061083f5761083f611a11565b5f918252602090912001546001600160a01b031614155b1561089a5760405163180a097760e01b81526020600482015260136024820152720aae6cae440d2dcc8caf040dad2e6dac2e8c6d606b1b6044820152606401610369565b8354845f6108a783611a25565b9190505550865f0361091157846020015160065f8282546108c891906119fe565b9091555050600184018054905f6108de83611a25565b9091555050845160208601516108f491906119fe565b846003015f82825461090691906119fe565b909155506109409050565b8451600680545f906109249084906119fe565b9091555050600284018054905f61093a83611a25565b91905055505b80545f908290610952906001906119fe565b8154811061096257610962611a11565b905f5260205f20015f9054906101000a90046001600160a01b031690508082848154811061099257610992611a11565b905f5260205f20015f6101000a8154816001600160a01b0302191690836001600160a01b03160217905550818054806109cd576109cd611a3a565b5f8281526020902081015f1990810180546001600160a01b0319169055019055806001600160a01b03811615610a4c576001600160a01b0381165f908152600c602090815260408083208d84529091528120908a9003610a3c57610a32856001611a4e565b6001820155610a4a565b610a47856001611a4e565b81555b505b6001600160a01b0388165f908152600c602090815260408083208d84529091528120908a9003610ac4575f6001820181905581549003610abf576001600160a01b0389165f908152600c602090815260408083208e845290915281208181556001810191909155600201805460ff191690555b610b0c565b5f80825560018201549003610b0c576001600160a01b0389165f908152600c602090815260408083208e845290915281208181556001810191909155600201805460ff191690555b5f8a15610b1a578851610b20565b88602001515b60015460405163a9059cbb60e01b81529192505f916001600160a01b039091169063a9059cbb90610b57908e908690600401611a61565b6020604051808303815f875af1158015610b73573d5f5f3e3d5ffd5b505050506040513d601f19601f82011682018060405250810190610b979190611a7a565b905080610bb65760405162461bcd60e51b815260040161036990611a99565b8a6001600160a01b03168c8e7f3bb9dff6487ed631415859ea9606ed71cc150b67fd2f73b5a71e5e84e35ab10385604051610bf391815260200190565b60405180910390a450505050505050505050505050565b5f8115610c24575f83815260096020526040902054610c36565b5f838152600960205260409020600101545b90505b92915050565b610c6660405180608001604052805f81526020015f81526020015f81526020015f81525090565b505f908152600a6020908152604091829020825160808101845281548152600182015492810192909252600281015492820192909252600390910154606082015290565b5f600454421015610cce5760405163180a097760e01b815260040161036990611ac8565b5f828152600960209081526040808320815160c08101835281548152600182015493810193909352600281015491830182905260038101546060840152600481015460808401526005015460a0830152909103610d3e5760405163180a097760e01b81526004016103699061197e565b60808101511580610d51575060a0810151155b15610d8c5760405163180a097760e01b815260206004820152600a602482015269139bdd081cd95959195960b21b6044820152606401610369565b6001600160a01b0384165f908152600c6020908152604080832086845282529182902082516060810184528154808252600183015493820184905260029092015460ff16151593810193909352901580159115159082610dea575080155b15610dfb575f945050505050610c39565b5f828015610e0f5750610e0f875f8a61152c565b90505f828015610e265750610e268860018b61152c565b90508180610e315750805b9998505050505050505050565b600454421015610e615760405163180a097760e01b815260040161036990611ac8565b5f818152600960209081526040808320815160c08101835281548152600182015493810193909352600281015491830182905260038101546060840152600481015460808401526005015460a0830152909103610ed15760405163180a097760e01b81526004016103699061197e565b335f908152600c602090815260408083208584529091529020600281015460ff1615610f325760405163180a097760e01b815260206004820152600f60248201526e105b1c9958591e4818db185a5b5959608a1b6044820152606401610369565b60018101548154901580159115159082610f4a575080155b15610f8c5760405163180a097760e01b8152602060048201526011602482015270139bc8189bdbdada5b99dcc8199bdd5b99607a1b6044820152606401610369565b5f828015610fa05750610fa0865f3361152c565b90505f828015610fb75750610fb78760013361152c565b90508180610fc25750805b1561100e5760405163180a097760e01b815260206004820152601b60248201527a155cd95c881ddbdb881d1a58dad95d1ccb081b9bc81c99599d5b99602a1b6044820152606401610369565b5f84156110275760208701516110249082611a4e565b90505b831561103c5786516110399082611a4e565b90505b5f888152600a602090815260408083208151608081018352815481526001820154938101939093526002810154918301919091526003015460608201819052909190156110aa575f61108d8b6116eb565b905080156110a8578083606001516110a59190611af2565b91505b505b60028801805460ff191660011790555f6110c48285611a4e565b60015460405163a9059cbb60e01b81529192505f916001600160a01b039091169063a9059cbb906110fb9033908690600401611a61565b6020604051808303815f875af1158015611117573d5f5f3e3d5ffd5b505050506040513d601f19601f8201168201806040525081019061113b9190611a7a565b90508061115a5760405162461bcd60e51b815260040161036990611a99565b604080518681526020810185905233918e917fcf409dbfc3ec40ef8f9752f4f34117a5e22dbbffe43e6da17365deae327c44ee910160405180910390a3505050505050505050505050565b6007546001600160a01b031633146111cf576040516282b42960e81b815260040160405180910390fd5b6002544210806111e157506003544210155b156112215760405163180a097760e01b815260206004820152600f60248201526e53616c65206e6f742061637469766560881b6044820152606401610369565b60018211156112435760405163180a097760e01b8152600401610369906119a6565b6001600160a01b03811661126a5760405163eac0d38960e01b8152600401610369906119cc565b5f838152600960209081526040808320815160c08101835281548152600182015493810193909352600281015491830182905260038101546060840152600481015460808401526005015460a08301529091036112da5760405163180a097760e01b81526004016103699061197e565b5f848152600a602090815260408083206001600160a01b0386168452600c83528184208885528352928190208151606081018352815480825260018301549482019490945260029091015460ff1615159181019190915290158015906113405750846001145b1561135e5760405163180a097760e01b815260040161036990611b11565b60208101511580159061136f575084155b1561138d5760405163180a097760e01b815260040161036990611b11565b8154825f61139a83611b3c565b9190505550845f0361142c57826020015160065f8282546113bb9190611a4e565b9091555050600182018054905f6113d183611b3c565b9091555050825160208401516113e791906119fe565b826003015f8282546113f99190611a4e565b90915550505f868152600b60209081526040808320888452909152902054611422906001611a4e565b6020820152611481565b8251600680545f9061143f908490611a4e565b9091555050600282018054905f61145583611b3c565b90915550505f868152600b6020908152604080832088845290915290205461147e906001611a4e565b81525b6001600160a01b0384165f818152600c602090815260408083208a845282528083208551815585830151600180830191909155868301516002909201805460ff191692151592909217909155600b83528184208a8552835281842080549182018155845291832090910180546001600160a01b0319168417905551879189917fbd60f0f2b09f3e1d8522ae13b342c818cd0ac5e11d3be9a30932f16c16477b7d9190a4505050505050565b5f838152600b6020908152604080832085845290915281208054808303611557575f925050506116e4565b5f8515611574575f87815260096020526040902060040154611586565b5f878152600960205260409020600501545b90505f86156115b6575f88815260096020526040902060038101546002909101546115b191906119fe565b6115c8565b5f888152600960205260409020600301545b90508281106115de5760019450505050506116e4565b805f036115f1575f9450505050506116e4565b5f8287604051602001611605929190611b54565b60408051601f19818403018152919052805160209091012090505f805b858110156116d8575f87828154811061163d5761163d611a11565b5f918252602090912001546001600160a01b0390811691508a16810361166357506116d0565b5f8682604051602001611677929190611b54565b604051602081830303815290604052805190602001205f1c9050848110806116ba575084811480156116ba57508a6001600160a01b0316826001600160a01b0316105b156116cd57836116c981611b3c565b9450505b50505b600101611622565b50919091109450505050505b9392505050565b5f818152600b6020908152604080832083805290915281208190815b81548110156117aa575f82828154811061172357611723611a11565b5f9182526020808320909101546001600160a01b0316808352600c825260408084208a85528352928390208351606081018552815481526001820154938101939093526002015460ff16158015938301849052909350909161178d575061178b875f8461152c565b155b156117a0578461179c81611b3c565b9550505b5050600101611707565b505f848152600b60209081526040808320600184529091528120905b8154811015611886575f8282815481106117e2576117e2611a11565b5f9182526020808320909101546001600160a01b0316808352600c825260408084208b85528352928390208351606081018552815481526001820154938101939093526002015460ff16158015938301849052909350909161184d575061184b8860018461152c565b155b1561187c57602081015115806118695750611869885f8461152c565b1561187c578561187881611b3c565b9650505b50506001016117c6565b5091949350505050565b5f602082840312156118a0575f5ffd5b5035919050565b5f5f5f606084860312156118b9575f5ffd5b505081359360208301359350604090920135919050565b80356001600160a01b03811681146118e6575f5ffd5b919050565b5f602082840312156118fb575f5ffd5b610c36826118d0565b5f5f5f60608486031215611916575f5ffd5b833592506020840135915061192d604085016118d0565b90509250925092565b5f5f60408385031215611947575f5ffd5b50508035926020909101359150565b5f5f60408385031215611967575f5ffd5b611970836118d0565b946020939093013593505050565b6020808252600e908201526d151a595c881b9bdd08199bdd5b9960921b604082015260600190565b6020808252600c908201526b125b9d985b1a59081cdb1bdd60a21b604082015260600190565b6020808252600490820152632ab9b2b960e11b604082015260600190565b634e487b7160e01b5f52601160045260245ffd5b81810381811115610c3957610c396119ea565b634e487b7160e01b5f52603260045260245ffd5b5f81611a3357611a336119ea565b505f190190565b634e487b7160e01b5f52603160045260245ffd5b80820180821115610c3957610c396119ea565b6001600160a01b03929092168252602082015260400190565b5f60208284031215611a8a575f5ffd5b815180151581146116e4575f5ffd5b602080825260159082015274141e5554d1081d1c985b9cd9995c8819985a5b1959605a1b604082015260600190565b60208082526010908201526f139bdd081c995d99585b1959081e595d60821b604082015260600190565b5f82611b0c57634e487b7160e01b5f52601260045260245ffd5b500490565b6020808252601190820152704475706c696361746520626f6f6b696e6760781b604082015260600190565b5f60018201611b4d57611b4d6119ea565b5060010190565b91825260601b6001600160601b03191660208201526034019056fea2646970667358221220b2ad63efe414069f933ff210ae03ea81800b4e4ca53184098d2543dacd3a48f064736f6c634300081c0033a2646970667358221220c1db05ffc0bbfc4485fe00837b681b0bc567a710a2f9a99d0474717f028da4d764736f6c634300081c0033",
  "linkReferences": {},
  "deployedLinkReferences": {},
  "immutableReferences": {
    "9624": [
      {
        "length": 32,
        "start": 105
      },
      {
        "length": 32,
        "start": 656
      }
    ],
    "9626": [
      {
        "length": 32,
        "start": 236
      },
      {
        "length": 32,
        "start": 531
      },
      {
        "length": 32,
        "start": 689
      },
      {
        "length": 32,
        "start": 821
      }
    ]
  },
  "inputSourceName": "project/contracts/EventFactory.sol",
  "buildInfoId": "solc-0_8_28-42323b550bc512eec9986d4a05b211ca2502f02e"
}