{
  "_format": "hh3-artifact-1",
  "contractName": "EventRouter",
  "sourceName": "contracts/EventRouter.sol",
  "abi": [
    {
      "inputs": [
        {
          "internalType": "address",
          "name": "_entropyV2",
          "type": "address"
        },
        {
          "internalType": "address",
          "name": "_pyUsd",
          "type": "address"
        }
      ],
      "stateMutability": "nonpayable",
      "type": "constructor"
    },
    {
      "inputs": [],
      "name": "AlreadyClaimed",
      "type": "error"
    },
    {
      "inputs": [
        {
          "internalType": "string",
          "name": "",
          "type": "string"
        }
      ],
      "name": "InvalidData",
      "type": "error"
    },
    {
      "inputs": [],
      "name": "InvalidEvent",
      "type": "error"
    },
    {
      "inputs": [],
      "name": "NotAlloted",
      "type": "error"
    },
    {
      "inputs": [],
      "name": "Unauthorized",
      "type": "error"
    },
    {
      "inputs": [
        {
          "internalType": "string",
          "name": "",
          "type": "string"
        }
      ],
      "name": "ZeroAddress",
      "type": "error"
    },
    {
      "inputs": [
        {
          "internalType": "uint64",
          "name": "sequence",
          "type": "uint64"
        },
        {
          "internalType": "address",
          "name": "provider",
          "type": "address"
        },
        {
          "internalType": "bytes32",
          "name": "randomNumber",
          "type": "bytes32"
        }
      ],
      "name": "_entropyCallback",
      "outputs": [],
      "stateMutability": "nonpayable",
      "type": "function"
    },
    {
      "inputs": [
        {
          "internalType": "uint256",
          "name": "eventId",
          "type": "uint256"
        },
        {
          "internalType": "uint256",
          "name": "tierId",
          "type": "uint256"
        }
      ],
      "name": "claimRefundAndRewards",
      "outputs": [],
      "stateMutability": "nonpayable",
      "type": "function"
    },
    {
      "inputs": [
        {
          "internalType": "uint256",
          "name": "eventId",
          "type": "uint256"
        },
        {
          "internalType": "uint256",
          "name": "tierId",
          "type": "uint256"
        }
      ],
      "name": "claimTicket",
      "outputs": [],
      "stateMutability": "nonpayable",
      "type": "function"
    },
    {
      "inputs": [
        {
          "internalType": "uint256",
          "name": "eventId",
          "type": "uint256"
        },
        {
          "internalType": "uint256",
          "name": "tierId",
          "type": "uint256"
        },
        {
          "internalType": "address",
          "name": "",
          "type": "address"
        }
      ],
      "name": "claimed",
      "outputs": [
        {
          "internalType": "bool",
          "name": "",
          "type": "bool"
        }
      ],
      "stateMutability": "view",
      "type": "function"
    },
    {
      "inputs": [],
      "name": "entropyV2",
      "outputs": [
        {
          "internalType": "contract IEntropyV2",
          "name": "",
          "type": "address"
        }
      ],
      "stateMutability": "view",
      "type": "function"
    },
    {
      "inputs": [
        {
          "internalType": "uint256",
          "name": "",
          "type": "uint256"
        }
      ],
      "name": "eventAddresses",
      "outputs": [
        {
          "internalType": "address",
          "name": "",
          "type": "address"
        }
      ],
      "stateMutability": "view",
      "type": "function"
    },
    {
      "inputs": [],
      "name": "factory",
      "outputs": [
        {
          "internalType": "address",
          "name": "",
          "type": "address"
        }
      ],
      "stateMutability": "view",
      "type": "function"
    },
    {
      "inputs": [
        {
          "internalType": "uint256",
          "name": "eventId",
          "type": "uint256"
        },
        {
          "internalType": "uint256",
          "name": "tierId",
          "type": "uint256"
        }
      ],
      "name": "getBookingMetric",
      "outputs": [
        {
          "components": [
            {
              "internalType": "uint256",
              "name": "totalBookings",
              "type": "uint256"
            },
            {
              "internalType": "uint256",
              "name": "totalPremiumBookings",
              "type": "uint256"
            },
            {
              "internalType": "uint256",
              "name": "totalGenBookings",
              "type": "uint256"
            }
          ],
          "internalType": "struct IEvent.TierBookingMetric",
          "name": "",
          "type": "tuple"
        }
      ],
      "stateMutability": "view",
      "type": "function"
    },
    {
      "inputs": [
        {
          "internalType": "uint256",
          "name": "eventId",
          "type": "uint256"
        },
        {
          "internalType": "address",
          "name": "user",
          "type": "address"
        },
        {
          "internalType": "uint256",
          "name": "tierId",
          "type": "uint256"
        }
      ],
      "name": "isAlloted",
      "outputs": [
        {
          "internalType": "bool",
          "name": "",
          "type": "bool"
        }
      ],
      "stateMutability": "view",
      "type": "function"
    },
    {
      "inputs": [],
      "name": "nextEventId",
      "outputs": [
        {
          "internalType": "uint256",
          "name": "",
          "type": "uint256"
        }
      ],
      "stateMutability": "view",
      "type": "function"
    },
    {
      "inputs": [],
      "name": "owner",
      "outputs": [
        {
          "internalType": "address",
          "name": "",
          "type": "address"
        }
      ],
      "stateMutability": "view",
      "type": "function"
    },
    {
      "inputs": [
        {
          "internalType": "uint64",
          "name": "",
          "type": "uint64"
        }
      ],
      "name": "pendingSeeds",
      "outputs": [
        {
          "internalType": "uint256",
          "name": "eventId",
          "type": "uint256"
        },
        {
          "internalType": "uint256",
          "name": "tierId",
          "type": "uint256"
        }
      ],
      "stateMutability": "view",
      "type": "function"
    },
    {
      "inputs": [],
      "name": "pyUsd",
      "outputs": [
        {
          "internalType": "contract IERC20",
          "name": "",
          "type": "address"
        }
      ],
      "stateMutability": "view",
      "type": "function"
    },
    {
      "inputs": [
        {
          "internalType": "uint256",
          "name": "eventId",
          "type": "uint256"
        },
        {
          "internalType": "uint256",
          "name": "tierId",
          "type": "uint256"
        },
        {
          "internalType": "uint256",
          "name": "slot",
          "type": "uint256"
        }
      ],
      "name": "registerBooking",
      "outputs": [],
      "stateMutability": "nonpayable",
      "type": "function"
    },
    {
      "inputs": [
        {
          "internalType": "address",
          "name": "eventAddr",
          "type": "address"
        },
        {
          "internalType": "address",
          "name": "ticketNFTAddr",
          "type": "address"
        }
      ],
      "name": "registerEvent",
      "outputs": [
        {
          "internalType": "uint256",
          "name": "eventId",
          "type": "uint256"
        }
      ],
      "stateMutability": "nonpayable",
      "type": "function"
    },
    {
      "inputs": [],
      "name": "requestRandomNumber",
      "outputs": [],
      "stateMutability": "payable",
      "type": "function"
    },
    {
      "inputs": [
        {
          "internalType": "uint256",
          "name": "eventId",
          "type": "uint256"
        },
        {
          "internalType": "uint256[]",
          "name": "tierIds",
          "type": "uint256[]"
        }
      ],
      "name": "requestSeedAllotmentForEvent",
      "outputs": [],
      "stateMutability": "payable",
      "type": "function"
    },
    {
      "inputs": [
        {
          "internalType": "uint256",
          "name": "eventId",
          "type": "uint256"
        },
        {
          "internalType": "uint256",
          "name": "tierId",
          "type": "uint256"
        },
        {
          "internalType": "uint256",
          "name": "genSeed",
          "type": "uint256"
        },
        {
          "internalType": "uint256",
          "name": "premiumSeed",
          "type": "uint256"
        }
      ],
      "name": "seedAllotment",
      "outputs": [],
      "stateMutability": "nonpayable",
      "type": "function"
    },
    {
      "inputs": [
        {
          "internalType": "address",
          "name": "_factory",
          "type": "address"
        }
      ],
      "name": "setFactory",
      "outputs": [],
      "stateMutability": "nonpayable",
      "type": "function"
    },
    {
      "inputs": [
        {
          "internalType": "uint256",
          "name": "",
          "type": "uint256"
        }
      ],
      "name": "ticketNFTAddresses",
      "outputs": [
        {
          "internalType": "address",
          "name": "",
          "type": "address"
        }
      ],
      "stateMutability": "view",
      "type": "function"
    },
    {
      "inputs": [
        {
          "internalType": "uint256",
          "name": "eventId",
          "type": "uint256"
        },
        {
          "internalType": "uint256",
          "name": "tierId",
          "type": "uint256"
        },
        {
          "internalType": "uint256",
          "name": "slot",
          "type": "uint256"
        }
      ],
      "name": "unregisterBooking",
      "outputs": [],
      "stateMutability": "nonpayable",
      "type": "function"
    }
  ],
  "bytecode": "0x608060405234801561000f575f5ffd5b506040516117e43803806117e483398101604081905261002e916100cc565b6001600160a01b0382166100755760405163eac0d38960e01b815260206004820152600960248201526822b73a3937b83cab1960b91b604482015260640160405180910390fd5b600180546001600160a01b03199081163317909155600380546001600160a01b03948516908316179055600480549290931691161790556100fd565b80516001600160a01b03811681146100c7575f5ffd5b919050565b5f5f604083850312156100dd575f5ffd5b6100e6836100b1565b91506100f4602084016100b1565b90509250929050565b6116da8061010a5f395ff3fe6080604052600436106100f9575f3560e01c806306edbb34146100fd5780633ea259c51461011e57806342d4728e1461015a57806347f5af8d1461017957806352a5f1f8146101c85780635bb47808146101e7578063663ba7d0146102065780636e02fd6a1461023357806371d56f72146102525780637d688337146102715780638678a7b2146102a55780638d930483146102ad5780638da5cb5b146102cc57806399b84c76146102eb5780639f9d903a1461031f578063a2f6603414610334578063b2b589031461037b578063c45a0155146103bc578063e967d5b3146103da578063ed06a740146103ed578063fb86f02c1461040c575b5f5ffd5b348015610108575f5ffd5b5061011c610117366004611256565b61042b565b005b348015610129575f5ffd5b5060045461013d906001600160a01b031681565b6040516001600160a01b0390911681526020015b60405180910390f35b348015610165575f5ffd5b5061011c610174366004611276565b6104c0565b348015610184575f5ffd5b506101b86101933660046112ba565b600860209081525f938452604080852082529284528284209052825290205460ff1681565b6040519015158152602001610151565b3480156101d3575f5ffd5b5061011c6101e2366004611303565b610696565b3480156101f2575f5ffd5b5061011c61020136600461133e565b610770565b348015610211575f5ffd5b5061022561022036600461135e565b6107bb565b604051908152602001610151565b34801561023e575f5ffd5b5061011c61024d366004611276565b61087c565b34801561025d575f5ffd5b5061011c61026c36600461138f565b610914565b34801561027c575f5ffd5b5061013d61028b3660046113be565b60066020525f90815260409020546001600160a01b031681565b61011c6109d7565b3480156102b8575f5ffd5b5060035461013d906001600160a01b031681565b3480156102d7575f5ffd5b5060015461013d906001600160a01b031681565b3480156102f6575f5ffd5b5061013d6103053660046113be565b60056020525f90815260409020546001600160a01b031681565b34801561032a575f5ffd5b5061022560025481565b34801561033f575f5ffd5b5061036661034e3660046113d5565b60076020525f90815260409020805460019091015482565b60408051928352602083019190915201610151565b348015610386575f5ffd5b5061039a610395366004611256565b610aca565b6040805182518152602080840151908201529181015190820152606001610151565b3480156103c7575f5ffd5b505f5461013d906001600160a01b031681565b61011c6103e8366004611434565b610b94565b3480156103f8575f5ffd5b5061011c610407366004611256565b610e14565b348015610417575f5ffd5b506101b86104263660046114ea565b611043565b5f828152600560205260409020546001600160a01b0316806104605760405163afb6a7d160e01b815260040160405180910390fd5b6040516317702d3b60e01b81526001600160a01b038216906317702d3b9061048e903390869060040161151d565b5f604051808303815f87803b1580156104a5575f5ffd5b505af11580156104b7573d5f5f3e3d5ffd5b50505050505050565b5f838152600560205260409020546001600160a01b0316806104f55760405163afb6a7d160e01b815260040160405180910390fd5b604051636f21f9cb60e01b815260048101849052602481018390525f906001600160a01b03831690636f21f9cb90604401602060405180830381865afa158015610541573d5f5f3e3d5ffd5b505050506040513d601f19601f820116820180604052508101906105659190611536565b604051637741d98360e11b81529091506001600160a01b0383169063ee83b306906105989087908790339060040161154d565b5f604051808303815f87803b1580156105af575f5ffd5b505af11580156105c1573d5f5f3e3d5ffd5b5050600480546040516323b872dd60e01b815233928101929092526001600160a01b038681166024840152604483018690525f94501691506323b872dd906064016020604051808303815f875af115801561061e573d5f5f3e3d5ffd5b505050506040513d601f19601f82011682018060405250810190610642919061156c565b90508061068e5760405162461bcd60e51b8152602060048201526015602482015274141e5554d1081d1c985b9cd9995c8819985a5b1959605a1b60448201526064015b60405180910390fd5b505050505050565b5f6106a96003546001600160a01b031690565b90506001600160a01b0381166106fb5760405162461bcd60e51b8152602060048201526017602482015276115b9d1c9bdc1e481859191c995cdcc81b9bdd081cd95d604a1b6044820152606401610685565b336001600160a01b0382161461075f5760405162461bcd60e51b815260206004820152602360248201527f4f6e6c7920456e74726f70792063616e2063616c6c20746869732066756e637460448201526234b7b760e91b6064820152608401610685565b61076a8484846110ee565b50505050565b6001546001600160a01b0316331461079a576040516282b42960e81b815260040160405180910390fd5b5f80546001600160a01b0319166001600160a01b0392909216919091179055565b5f80546001600160a01b031633146107e5576040516282b42960e81b815260040160405180910390fd5b6001600160a01b038316158061080257506001600160a01b038216155b156108205760405163afb6a7d160e01b815260040160405180910390fd5b60028054905f61082f8361159f565b909155505f81815260056020908152604080832080546001600160a01b039889166001600160a01b0319918216179091556006909252909120805494909516931692909217909255919050565b5f838152600560205260409020546001600160a01b0316806108b15760405163afb6a7d160e01b815260040160405180910390fd5b604051632149ec6f60e11b81526001600160a01b03821690634293d8de906108e19086908690339060040161154d565b5f604051808303815f87803b1580156108f8575f5ffd5b505af115801561090a573d5f5f3e3d5ffd5b5050505050505050565b6001546001600160a01b0316331461093e576040516282b42960e81b815260040160405180910390fd5b5f848152600560205260409020546001600160a01b0316806109735760405163afb6a7d160e01b815260040160405180910390fd5b60405163075c899560e11b81526001600160a01b03821690630eb9132a906109a3908790879087906004016115b7565b5f604051808303815f87803b1580156109ba575f5ffd5b505af11580156109cc573d5f5f3e3d5ffd5b505050505050505050565b600354604080516341025b3d60e11b815290515f926001600160a01b031691638204b67a9160048083019260209291908290030181865afa158015610a1e573d5f5f3e3d5ffd5b505050506040513d601f19601f82011682018060405250810190610a4291906115cd565b6001600160801b031690505f60035f9054906101000a90046001600160a01b03166001600160a01b0316637b43155d836040518263ffffffff1660e01b815260040160206040518083038185885af1158015610aa0573d5f5f3e3d5ffd5b50505050506040513d601f19601f82011682018060405250810190610ac591906115f3565b505050565b610aeb60405180606001604052805f81526020015f81526020015f81525090565b5f838152600560205260409020546001600160a01b031680610b205760405163afb6a7d160e01b815260040160405180910390fd5b6040516302979c8760e61b8152600481018490525f906001600160a01b0383169063a5e721c090602401606060405180830381865afa158015610b65573d5f5f3e3d5ffd5b505050506040513d601f19601f82011682018060405250810190610b89919061160e565b925050505b92915050565b6001546001600160a01b03163314610bbe576040516282b42960e81b815260040160405180910390fd5b5f828152600560205260409020546001600160a01b031680610bf35760405163afb6a7d160e01b815260040160405180910390fd5b81515f819003610c315760405163180a097760e01b81526020600482015260086024820152674e6f20746965727360c01b6044820152606401610685565b600354604080516341025b3d60e11b815290515f926001600160a01b031691638204b67a9160048083019260209291908290030181865afa158015610c78573d5f5f3e3d5ffd5b505050506040513d601f19601f82011682018060405250810190610c9c91906115cd565b6001600160801b031690505f610cb28383611666565b905080341015610cf85760405163180a097760e01b815260206004820152601060248201526f496e73756666696369656e742066656560801b6044820152606401610685565b5f5b83811015610dd8575f60035f9054906101000a90046001600160a01b03166001600160a01b0316637b43155d856040518263ffffffff1660e01b815260040160206040518083038185885af1158015610d55573d5f5f3e3d5ffd5b50505050506040513d601f19601f82011682018060405250810190610d7a91906115f3565b90506040518060400160405280898152602001888481518110610d9f57610d9f61167d565b6020908102919091018101519091526001600160401b039092165f90815260078352604090208151815591015160019182015501610cfa565b508034111561068e57336108fc610def8334611691565b6040518115909202915f818181858888f193505050501580156104b7573d5f5f3e3d5ffd5b5f828152600560205260409020546001600160a01b031680610e495760405163afb6a7d160e01b815260040160405180910390fd5b806001600160a01b031663ba829d716040518163ffffffff1660e01b8152600401602060405180830381865afa158015610e85573d5f5f3e3d5ffd5b505050506040513d601f19601f82011682018060405250810190610ea99190611536565b421015610eec5760405163180a097760e01b815260206004820152601060248201526f139bdd081c995d99585b1959081e595d60821b6044820152606401610685565b60405163c355ca6160e01b81526001600160a01b0382169063c355ca6190610f1a903390869060040161151d565b602060405180830381865afa158015610f35573d5f5f3e3d5ffd5b505050506040513d601f19601f82011682018060405250810190610f59919061156c565b610f765760405163024ae45b60e21b815260040160405180910390fd5b5f838152600860209081526040808320858452825280832033845290915290205460ff1615610fb857604051630c8d9eab60e31b815260040160405180910390fd5b5f83815260086020908152604080832085845282528083203384528252808320805460ff1916600117905585835260069091529020546001600160a01b0316806110155760405163afb6a7d160e01b815260040160405180910390fd5b6040516340c10f1960e01b81526001600160a01b038216906340c10f19906108e1903390879060040161151d565b5f838152600560205260408120546001600160a01b0316806110785760405163afb6a7d160e01b815260040160405180910390fd5b60405163c355ca6160e01b81526001600160a01b0382169063c355ca61906110a6908790879060040161151d565b602060405180830381865afa1580156110c1573d5f5f3e3d5ffd5b505050506040513d601f19601f820116820180604052508101906110e5919061156c565b95945050505050565b6001600160401b0383165f908152600760209081526040808320815180830190925280548083526001909101549282019290925291036111645760405163180a097760e01b815260206004820152601060248201526f556e6b6e6f776e2073657175656e636560801b6044820152606401610685565b6020818101516040805192830185905282015282905f9060600160408051601f19818403018152918152815160209283012085515f90815260059093529120549091506001600160a01b0316806111ce5760405163afb6a7d160e01b815260040160405180910390fd5b602084015160405163075c899560e11b81526001600160a01b03831691630eb9132a916112029190879087906004016115b7565b5f604051808303815f87803b158015611219575f5ffd5b505af115801561122b573d5f5f3e3d5ffd5b5050506001600160401b039097165f9081526007602052604081208181556001015550505050505050565b5f5f60408385031215611267575f5ffd5b50508035926020909101359150565b5f5f5f60608486031215611288575f5ffd5b505081359360208301359350604090920135919050565b80356001600160a01b03811681146112b5575f5ffd5b919050565b5f5f5f606084860312156112cc575f5ffd5b83359250602084013591506112e36040850161129f565b90509250925092565b6001600160401b0381168114611300575f5ffd5b50565b5f5f5f60608486031215611315575f5ffd5b8335611320816112ec565b925061132e6020850161129f565b9150604084013590509250925092565b5f6020828403121561134e575f5ffd5b6113578261129f565b9392505050565b5f5f6040838503121561136f575f5ffd5b6113788361129f565b91506113866020840161129f565b90509250929050565b5f5f5f5f608085870312156113a2575f5ffd5b5050823594602084013594506040840135936060013592509050565b5f602082840312156113ce575f5ffd5b5035919050565b5f602082840312156113e5575f5ffd5b8135611357816112ec565b634e487b7160e01b5f52604160045260245ffd5b604051601f8201601f191681016001600160401b038111828210171561142c5761142c6113f0565b604052919050565b5f5f60408385031215611445575f5ffd5b8235915060208301356001600160401b03811115611461575f5ffd5b8301601f81018513611471575f5ffd5b80356001600160401b0381111561148a5761148a6113f0565b8060051b61149a60208201611404565b918252602081840181019290810190888411156114b5575f5ffd5b6020850194505b838510156114db578435808352602095860195909350909101906114bc565b80955050505050509250929050565b5f5f5f606084860312156114fc575f5ffd5b8335925061150c6020850161129f565b929592945050506040919091013590565b6001600160a01b03929092168252602082015260400190565b5f60208284031215611546575f5ffd5b5051919050565b92835260208301919091526001600160a01b0316604082015260600190565b5f6020828403121561157c575f5ffd5b81518015158114611357575f5ffd5b634e487b7160e01b5f52601160045260245ffd5b5f600182016115b0576115b061158b565b5060010190565b9283526020830191909152604082015260600190565b5f602082840312156115dd575f5ffd5b81516001600160801b0381168114611357575f5ffd5b5f60208284031215611603575f5ffd5b8151611357816112ec565b5f606082840312801561161f575f5ffd5b50604051606081016001600160401b0381118282101715611642576116426113f0565b60409081528351825260208085015190830152928301519281019290925250919050565b8082028115828204841417610b8e57610b8e61158b565b634e487b7160e01b5f52603260045260245ffd5b81810381811115610b8e57610b8e61158b56fea2646970667358221220b728c738abf6f4759aea3f33c806de9b114d8114e2f7ceea2355ee1ec9581a7764736f6c634300081c0033",
  "linkReferences": {},
  "deployedLinkReferences": {},
  "immutableReferences": {},
  "inputSourceName": "project/contracts/EventRouter.sol",
  "buildInfoId": "solc-0_8_28-55269d99eca6ae650501238ad712160ab5081bc6"
}