{
  "_format": "hh3-artifact-1",
  "contractName": "EventRouter",
  "sourceName": "contracts/EventRouter.sol",
  "abi": [
    {
      "inputs": [
        {
          "internalType": "address",
          "name": "_entropyV2",
          "type": "address"
        },
        {
          "internalType": "address",
          "name": "_pyUsd",
          "type": "address"
        }
      ],
      "stateMutability": "nonpayable",
      "type": "constructor"
    },
    {
      "inputs": [],
      "name": "AlreadyClaimed",
      "type": "error"
    },
    {
      "inputs": [
        {
          "internalType": "string",
          "name": "",
          "type": "string"
        }
      ],
      "name": "InvalidData",
      "type": "error"
    },
    {
      "inputs": [],
      "name": "InvalidEvent",
      "type": "error"
    },
    {
      "inputs": [],
      "name": "NotAlloted",
      "type": "error"
    },
    {
      "inputs": [],
      "name": "Unauthorized",
      "type": "error"
    },
    {
      "inputs": [
        {
          "internalType": "string",
          "name": "",
          "type": "string"
        }
      ],
      "name": "ZeroAddress",
      "type": "error"
    },
    {
      "inputs": [
        {
          "internalType": "uint64",
          "name": "sequence",
          "type": "uint64"
        },
        {
          "internalType": "address",
          "name": "provider",
          "type": "address"
        },
        {
          "internalType": "bytes32",
          "name": "randomNumber",
          "type": "bytes32"
        }
      ],
      "name": "_entropyCallback",
      "outputs": [],
      "stateMutability": "nonpayable",
      "type": "function"
    },
    {
      "inputs": [
        {
          "internalType": "uint256",
          "name": "eventId",
          "type": "uint256"
        },
        {
          "internalType": "uint256",
          "name": "tierId",
          "type": "uint256"
        }
      ],
      "name": "claimRefundAndRewards",
      "outputs": [],
      "stateMutability": "nonpayable",
      "type": "function"
    },
    {
      "inputs": [
        {
          "internalType": "uint256",
          "name": "eventId",
          "type": "uint256"
        },
        {
          "internalType": "uint256",
          "name": "tierId",
          "type": "uint256"
        }
      ],
      "name": "claimTicket",
      "outputs": [],
      "stateMutability": "nonpayable",
      "type": "function"
    },
    {
      "inputs": [
        {
          "internalType": "uint256",
          "name": "eventId",
          "type": "uint256"
        },
        {
          "internalType": "uint256",
          "name": "tierId",
          "type": "uint256"
        },
        {
          "internalType": "address",
          "name": "",
          "type": "address"
        }
      ],
      "name": "claimed",
      "outputs": [
        {
          "internalType": "bool",
          "name": "",
          "type": "bool"
        }
      ],
      "stateMutability": "view",
      "type": "function"
    },
    {
      "inputs": [],
      "name": "entropyV2",
      "outputs": [
        {
          "internalType": "contract IEntropyV2",
          "name": "",
          "type": "address"
        }
      ],
      "stateMutability": "view",
      "type": "function"
    },
    {
      "inputs": [
        {
          "internalType": "uint256",
          "name": "",
          "type": "uint256"
        }
      ],
      "name": "eventAddresses",
      "outputs": [
        {
          "internalType": "address",
          "name": "",
          "type": "address"
        }
      ],
      "stateMutability": "view",
      "type": "function"
    },
    {
      "inputs": [],
      "name": "factory",
      "outputs": [
        {
          "internalType": "address",
          "name": "",
          "type": "address"
        }
      ],
      "stateMutability": "view",
      "type": "function"
    },
    {
      "inputs": [
        {
          "internalType": "uint256",
          "name": "eventId",
          "type": "uint256"
        },
        {
          "internalType": "uint256",
          "name": "tierId",
          "type": "uint256"
        }
      ],
      "name": "getBookingMetric",
      "outputs": [
        {
          "components": [
            {
              "internalType": "uint256",
              "name": "totalBookings",
              "type": "uint256"
            },
            {
              "internalType": "uint256",
              "name": "totalPremiumBookings",
              "type": "uint256"
            },
            {
              "internalType": "uint256",
              "name": "totalGenBookings",
              "type": "uint256"
            }
          ],
          "internalType": "struct IEvent.TierBookingMetric",
          "name": "",
          "type": "tuple"
        }
      ],
      "stateMutability": "view",
      "type": "function"
    },
    {
      "inputs": [
        {
          "internalType": "uint256",
          "name": "eventId",
          "type": "uint256"
        },
        {
          "internalType": "address",
          "name": "user",
          "type": "address"
        },
        {
          "internalType": "uint256",
          "name": "tierId",
          "type": "uint256"
        }
      ],
      "name": "isAlloted",
      "outputs": [
        {
          "internalType": "bool",
          "name": "",
          "type": "bool"
        }
      ],
      "stateMutability": "view",
      "type": "function"
    },
    {
      "inputs": [],
      "name": "nextEventId",
      "outputs": [
        {
          "internalType": "uint256",
          "name": "",
          "type": "uint256"
        }
      ],
      "stateMutability": "view",
      "type": "function"
    },
    {
      "inputs": [],
      "name": "owner",
      "outputs": [
        {
          "internalType": "address",
          "name": "",
          "type": "address"
        }
      ],
      "stateMutability": "view",
      "type": "function"
    },
    {
      "inputs": [
        {
          "internalType": "uint64",
          "name": "",
          "type": "uint64"
        }
      ],
      "name": "pendingSeeds",
      "outputs": [
        {
          "internalType": "uint256",
          "name": "eventId",
          "type": "uint256"
        },
        {
          "internalType": "uint256",
          "name": "tierId",
          "type": "uint256"
        }
      ],
      "stateMutability": "view",
      "type": "function"
    },
    {
      "inputs": [],
      "name": "pyUsd",
      "outputs": [
        {
          "internalType": "contract IERC20",
          "name": "",
          "type": "address"
        }
      ],
      "stateMutability": "view",
      "type": "function"
    },
    {
      "inputs": [
        {
          "internalType": "uint256",
          "name": "eventId",
          "type": "uint256"
        },
        {
          "internalType": "uint256",
          "name": "tierId",
          "type": "uint256"
        },
        {
          "internalType": "uint256",
          "name": "slot",
          "type": "uint256"
        }
      ],
      "name": "registerBooking",
      "outputs": [],
      "stateMutability": "nonpayable",
      "type": "function"
    },
    {
      "inputs": [
        {
          "internalType": "address",
          "name": "eventAddr",
          "type": "address"
        },
        {
          "internalType": "address",
          "name": "ticketNFTAddr",
          "type": "address"
        }
      ],
      "name": "registerEvent",
      "outputs": [
        {
          "internalType": "uint256",
          "name": "eventId",
          "type": "uint256"
        }
      ],
      "stateMutability": "nonpayable",
      "type": "function"
    },
    {
      "inputs": [],
      "name": "requestRandomNumber",
      "outputs": [],
      "stateMutability": "payable",
      "type": "function"
    },
    {
      "inputs": [
        {
          "internalType": "uint256",
          "name": "eventId",
          "type": "uint256"
        },
        {
          "internalType": "uint256[]",
          "name": "tierIds",
          "type": "uint256[]"
        }
      ],
      "name": "requestSeedAllotmentForEvent",
      "outputs": [],
      "stateMutability": "payable",
      "type": "function"
    },
    {
      "inputs": [
        {
          "internalType": "uint256",
          "name": "eventId",
          "type": "uint256"
        },
        {
          "internalType": "uint256",
          "name": "tierId",
          "type": "uint256"
        },
        {
          "internalType": "uint256",
          "name": "genSeed",
          "type": "uint256"
        },
        {
          "internalType": "uint256",
          "name": "premiumSeed",
          "type": "uint256"
        }
      ],
      "name": "seedAllotment",
      "outputs": [],
      "stateMutability": "nonpayable",
      "type": "function"
    },
    {
      "inputs": [
        {
          "internalType": "address",
          "name": "_entropyV2",
          "type": "address"
        }
      ],
      "name": "setEntropyV2",
      "outputs": [],
      "stateMutability": "nonpayable",
      "type": "function"
    },
    {
      "inputs": [
        {
          "internalType": "address",
          "name": "_factory",
          "type": "address"
        }
      ],
      "name": "setFactory",
      "outputs": [],
      "stateMutability": "nonpayable",
      "type": "function"
    },
    {
      "inputs": [
        {
          "internalType": "address",
          "name": "_owner",
          "type": "address"
        }
      ],
      "name": "setOwner",
      "outputs": [],
      "stateMutability": "nonpayable",
      "type": "function"
    },
    {
      "inputs": [
        {
          "internalType": "address",
          "name": "_pyUsd",
          "type": "address"
        }
      ],
      "name": "setPyUsd",
      "outputs": [],
      "stateMutability": "nonpayable",
      "type": "function"
    },
    {
      "inputs": [
        {
          "internalType": "uint256",
          "name": "",
          "type": "uint256"
        }
      ],
      "name": "ticketNFTAddresses",
      "outputs": [
        {
          "internalType": "address",
          "name": "",
          "type": "address"
        }
      ],
      "stateMutability": "view",
      "type": "function"
    },
    {
      "inputs": [
        {
          "internalType": "uint256",
          "name": "eventId",
          "type": "uint256"
        },
        {
          "internalType": "uint256",
          "name": "tierId",
          "type": "uint256"
        },
        {
          "internalType": "uint256",
          "name": "slot",
          "type": "uint256"
        }
      ],
      "name": "unregisterBooking",
      "outputs": [],
      "stateMutability": "nonpayable",
      "type": "function"
    }
  ],
  "bytecode": "0x608060405234801561000f575f5ffd5b50604051611a07380380611a0783398101604081905261002e916100cc565b6001600160a01b0382166100755760405163eac0d38960e01b815260206004820152600960248201526822b73a3937b83cab1960b91b604482015260640160405180910390fd5b600180546001600160a01b03199081163317909155600380546001600160a01b03948516908316179055600480549290931691161790556100fd565b80516001600160a01b03811681146100c7575f5ffd5b919050565b5f5f604083850312156100dd575f5ffd5b6100e6836100b1565b91506100f4602084016100b1565b90509250929050565b6118fd8061010a5f395ff3fe60806040526004361061011a575f3560e01c806306edbb341461011e57806313af40351461013f5780633ea259c51461015e57806342d4728e1461019a57806347f5af8d146101b957806352a5f1f8146102085780635bb4780814610227578063663ba7d0146102465780636e02fd6a1461027357806371d56f72146102925780637d688337146102b15780638678a7b2146102e55780638d930483146102ed5780638da5cb5b1461030c57806399b84c761461032b5780639f9d903a1461035f578063a2f6603414610374578063b2b58903146103bb578063c45a0155146103fc578063c84d24d51461041a578063e4cd16d014610439578063e967d5b314610458578063ed06a7401461046b578063fb86f02c1461048a575b5f5ffd5b348015610129575f5ffd5b5061013d610138366004611479565b6104a9565b005b34801561014a575f5ffd5b5061013d6101593660046114b4565b61053e565b348015610169575f5ffd5b5060045461017d906001600160a01b031681565b6040516001600160a01b0390911681526020015b60405180910390f35b3480156101a5575f5ffd5b5061013d6101b43660046114d4565b6105ce565b3480156101c4575f5ffd5b506101f86101d33660046114fd565b600860209081525f938452604080852082529284528284209052825290205460ff1681565b6040519015158152602001610191565b348015610213575f5ffd5b5061013d610222366004611546565b61079f565b348015610232575f5ffd5b5061013d6102413660046114b4565b610879565b348015610251575f5ffd5b50610265610260366004611581565b6108c4565b604051908152602001610191565b34801561027e575f5ffd5b5061013d61028d3660046114d4565b610985565b34801561029d575f5ffd5b5061013d6102ac3660046115b2565b610a1d565b3480156102bc575f5ffd5b5061017d6102cb3660046115e1565b60066020525f90815260409020546001600160a01b031681565b61013d610ae0565b3480156102f8575f5ffd5b5060035461017d906001600160a01b031681565b348015610317575f5ffd5b5060015461017d906001600160a01b031681565b348015610336575f5ffd5b5061017d6103453660046115e1565b60056020525f90815260409020546001600160a01b031681565b34801561036a575f5ffd5b5061026560025481565b34801561037f575f5ffd5b506103a661038e3660046115f8565b60076020525f90815260409020805460019091015482565b60408051928352602083019190915201610191565b3480156103c6575f5ffd5b506103da6103d5366004611479565b610bd3565b6040805182518152602080840151908201529181015190820152606001610191565b348015610407575f5ffd5b505f5461017d906001600160a01b031681565b348015610425575f5ffd5b5061013d6104343660046114b4565b610c9d565b348015610444575f5ffd5b5061013d6104533660046114b4565b610d2c565b61013d610466366004611657565b610db7565b348015610476575f5ffd5b5061013d610485366004611479565b611037565b348015610495575f5ffd5b506101f86104a436600461170d565b611266565b5f828152600560205260409020546001600160a01b0316806104de5760405163afb6a7d160e01b815260040160405180910390fd5b6040516317702d3b60e01b81526001600160a01b038216906317702d3b9061050c9033908690600401611740565b5f604051808303815f87803b158015610523575f5ffd5b505af1158015610535573d5f5f3e3d5ffd5b50505050505050565b6001546001600160a01b03163314610568576040516282b42960e81b815260040160405180910390fd5b6001600160a01b0381166105ac5760405163eac0d38960e01b815260206004820152600560248201526427bbb732b960d91b60448201526064015b60405180910390fd5b600180546001600160a01b0319166001600160a01b0392909216919091179055565b5f838152600560205260409020546001600160a01b0316806106035760405163afb6a7d160e01b815260040160405180910390fd5b604051636f21f9cb60e01b815260048101849052602481018390525f906001600160a01b03831690636f21f9cb90604401602060405180830381865afa15801561064f573d5f5f3e3d5ffd5b505050506040513d601f19601f820116820180604052508101906106739190611759565b604051637741d98360e11b81529091506001600160a01b0383169063ee83b306906106a690879087903390600401611770565b5f604051808303815f87803b1580156106bd575f5ffd5b505af11580156106cf573d5f5f3e3d5ffd5b5050600480546040516323b872dd60e01b815233928101929092526001600160a01b038681166024840152604483018690525f94501691506323b872dd906064016020604051808303815f875af115801561072c573d5f5f3e3d5ffd5b505050506040513d601f19601f82011682018060405250810190610750919061178f565b9050806107975760405162461bcd60e51b8152602060048201526015602482015274141e5554d1081d1c985b9cd9995c8819985a5b1959605a1b60448201526064016105a3565b505050505050565b5f6107b26003546001600160a01b031690565b90506001600160a01b0381166108045760405162461bcd60e51b8152602060048201526017602482015276115b9d1c9bdc1e481859191c995cdcc81b9bdd081cd95d604a1b60448201526064016105a3565b336001600160a01b038216146108685760405162461bcd60e51b815260206004820152602360248201527f4f6e6c7920456e74726f70792063616e2063616c6c20746869732066756e637460448201526234b7b760e91b60648201526084016105a3565b610873848484611311565b50505050565b6001546001600160a01b031633146108a3576040516282b42960e81b815260040160405180910390fd5b5f80546001600160a01b0319166001600160a01b0392909216919091179055565b5f80546001600160a01b031633146108ee576040516282b42960e81b815260040160405180910390fd5b6001600160a01b038316158061090b57506001600160a01b038216155b156109295760405163afb6a7d160e01b815260040160405180910390fd5b60028054905f610938836117c2565b909155505f81815260056020908152604080832080546001600160a01b039889166001600160a01b0319918216179091556006909252909120805494909516931692909217909255919050565b5f838152600560205260409020546001600160a01b0316806109ba5760405163afb6a7d160e01b815260040160405180910390fd5b604051632149ec6f60e11b81526001600160a01b03821690634293d8de906109ea90869086903390600401611770565b5f604051808303815f87803b158015610a01575f5ffd5b505af1158015610a13573d5f5f3e3d5ffd5b5050505050505050565b6001546001600160a01b03163314610a47576040516282b42960e81b815260040160405180910390fd5b5f848152600560205260409020546001600160a01b031680610a7c5760405163afb6a7d160e01b815260040160405180910390fd5b60405163075c899560e11b81526001600160a01b03821690630eb9132a90610aac908790879087906004016117da565b5f604051808303815f87803b158015610ac3575f5ffd5b505af1158015610ad5573d5f5f3e3d5ffd5b505050505050505050565b600354604080516341025b3d60e11b815290515f926001600160a01b031691638204b67a9160048083019260209291908290030181865afa158015610b27573d5f5f3e3d5ffd5b505050506040513d601f19601f82011682018060405250810190610b4b91906117f0565b6001600160801b031690505f60035f9054906101000a90046001600160a01b03166001600160a01b0316637b43155d836040518263ffffffff1660e01b815260040160206040518083038185885af1158015610ba9573d5f5f3e3d5ffd5b50505050506040513d601f19601f82011682018060405250810190610bce9190611816565b505050565b610bf460405180606001604052805f81526020015f81526020015f81525090565b5f838152600560205260409020546001600160a01b031680610c295760405163afb6a7d160e01b815260040160405180910390fd5b6040516302979c8760e61b8152600481018490525f906001600160a01b0383169063a5e721c090602401606060405180830381865afa158015610c6e573d5f5f3e3d5ffd5b505050506040513d601f19601f82011682018060405250810190610c929190611831565b925050505b92915050565b6001546001600160a01b03163314610cc7576040516282b42960e81b815260040160405180910390fd5b6001600160a01b038116610d0a5760405163eac0d38960e01b815260206004820152600960248201526822b73a3937b83cab1960b91b60448201526064016105a3565b600380546001600160a01b0319166001600160a01b0392909216919091179055565b6001546001600160a01b03163314610d56576040516282b42960e81b815260040160405180910390fd5b6001600160a01b038116610d955760405163eac0d38960e01b815260206004820152600560248201526414165554d160da1b60448201526064016105a3565b600480546001600160a01b0319166001600160a01b0392909216919091179055565b6001546001600160a01b03163314610de1576040516282b42960e81b815260040160405180910390fd5b5f828152600560205260409020546001600160a01b031680610e165760405163afb6a7d160e01b815260040160405180910390fd5b81515f819003610e545760405163180a097760e01b81526020600482015260086024820152674e6f20746965727360c01b60448201526064016105a3565b600354604080516341025b3d60e11b815290515f926001600160a01b031691638204b67a9160048083019260209291908290030181865afa158015610e9b573d5f5f3e3d5ffd5b505050506040513d601f19601f82011682018060405250810190610ebf91906117f0565b6001600160801b031690505f610ed58383611889565b905080341015610f1b5760405163180a097760e01b815260206004820152601060248201526f496e73756666696369656e742066656560801b60448201526064016105a3565b5f5b83811015610ffb575f60035f9054906101000a90046001600160a01b03166001600160a01b0316637b43155d856040518263ffffffff1660e01b815260040160206040518083038185885af1158015610f78573d5f5f3e3d5ffd5b50505050506040513d601f19601f82011682018060405250810190610f9d9190611816565b90506040518060400160405280898152602001888481518110610fc257610fc26118a0565b6020908102919091018101519091526001600160401b039092165f90815260078352604090208151815591015160019182015501610f1d565b508034111561079757336108fc61101283346118b4565b6040518115909202915f818181858888f19350505050158015610535573d5f5f3e3d5ffd5b5f828152600560205260409020546001600160a01b03168061106c5760405163afb6a7d160e01b815260040160405180910390fd5b806001600160a01b031663ba829d716040518163ffffffff1660e01b8152600401602060405180830381865afa1580156110a8573d5f5f3e3d5ffd5b505050506040513d601f19601f820116820180604052508101906110cc9190611759565b42101561110f5760405163180a097760e01b815260206004820152601060248201526f139bdd081c995d99585b1959081e595d60821b60448201526064016105a3565b60405163c355ca6160e01b81526001600160a01b0382169063c355ca619061113d9033908690600401611740565b602060405180830381865afa158015611158573d5f5f3e3d5ffd5b505050506040513d601f19601f8201168201806040525081019061117c919061178f565b6111995760405163024ae45b60e21b815260040160405180910390fd5b5f838152600860209081526040808320858452825280832033845290915290205460ff16156111db57604051630c8d9eab60e31b815260040160405180910390fd5b5f83815260086020908152604080832085845282528083203384528252808320805460ff1916600117905585835260069091529020546001600160a01b0316806112385760405163afb6a7d160e01b815260040160405180910390fd5b6040516340c10f1960e01b81526001600160a01b038216906340c10f19906109ea9033908790600401611740565b5f838152600560205260408120546001600160a01b03168061129b5760405163afb6a7d160e01b815260040160405180910390fd5b60405163c355ca6160e01b81526001600160a01b0382169063c355ca61906112c99087908790600401611740565b602060405180830381865afa1580156112e4573d5f5f3e3d5ffd5b505050506040513d601f19601f82011682018060405250810190611308919061178f565b95945050505050565b6001600160401b0383165f908152600760209081526040808320815180830190925280548083526001909101549282019290925291036113875760405163180a097760e01b815260206004820152601060248201526f556e6b6e6f776e2073657175656e636560801b60448201526064016105a3565b6020818101516040805192830185905282015282905f9060600160408051601f19818403018152918152815160209283012085515f90815260059093529120549091506001600160a01b0316806113f15760405163afb6a7d160e01b815260040160405180910390fd5b602084015160405163075c899560e11b81526001600160a01b03831691630eb9132a916114259190879087906004016117da565b5f604051808303815f87803b15801561143c575f5ffd5b505af115801561144e573d5f5f3e3d5ffd5b5050506001600160401b039097165f9081526007602052604081208181556001015550505050505050565b5f5f6040838503121561148a575f5ffd5b50508035926020909101359150565b80356001600160a01b03811681146114af575f5ffd5b919050565b5f602082840312156114c4575f5ffd5b6114cd82611499565b9392505050565b5f5f5f606084860312156114e6575f5ffd5b505081359360208301359350604090920135919050565b5f5f5f6060848603121561150f575f5ffd5b833592506020840135915061152660408501611499565b90509250925092565b6001600160401b0381168114611543575f5ffd5b50565b5f5f5f60608486031215611558575f5ffd5b83356115638161152f565b925061157160208501611499565b9150604084013590509250925092565b5f5f60408385031215611592575f5ffd5b61159b83611499565b91506115a960208401611499565b90509250929050565b5f5f5f5f608085870312156115c5575f5ffd5b5050823594602084013594506040840135936060013592509050565b5f602082840312156115f1575f5ffd5b5035919050565b5f60208284031215611608575f5ffd5b81356114cd8161152f565b634e487b7160e01b5f52604160045260245ffd5b604051601f8201601f191681016001600160401b038111828210171561164f5761164f611613565b604052919050565b5f5f60408385031215611668575f5ffd5b8235915060208301356001600160401b03811115611684575f5ffd5b8301601f81018513611694575f5ffd5b80356001600160401b038111156116ad576116ad611613565b8060051b6116bd60208201611627565b918252602081840181019290810190888411156116d8575f5ffd5b6020850194505b838510156116fe578435808352602095860195909350909101906116df565b80955050505050509250929050565b5f5f5f6060848603121561171f575f5ffd5b8335925061172f60208501611499565b929592945050506040919091013590565b6001600160a01b03929092168252602082015260400190565b5f60208284031215611769575f5ffd5b5051919050565b92835260208301919091526001600160a01b0316604082015260600190565b5f6020828403121561179f575f5ffd5b815180151581146114cd575f5ffd5b634e487b7160e01b5f52601160045260245ffd5b5f600182016117d3576117d36117ae565b5060010190565b9283526020830191909152604082015260600190565b5f60208284031215611800575f5ffd5b81516001600160801b03811681146114cd575f5ffd5b5f60208284031215611826575f5ffd5b81516114cd8161152f565b5f6060828403128015611842575f5ffd5b50604051606081016001600160401b038111828210171561186557611865611613565b60409081528351825260208085015190830152928301519281019290925250919050565b8082028115828204841417610c9757610c976117ae565b634e487b7160e01b5f52603260045260245ffd5b81810381811115610c9757610c976117ae56fea2646970667358221220a347309d2b586b82e61cde7599a4bda24a47275a8bdf9486f234166c16b38b9364736f6c634300081c0033",
  "linkReferences": {},
  "deployedLinkReferences": {},
  "immutableReferences": {},
  "inputSourceName": "project/contracts/EventRouter.sol",
  "buildInfoId": "solc-0_8_28-7a6f551313d0fb2431f7ad988c1b89345f9cf227"
}