{
  "_format": "hh3-artifact-1",
  "contractName": "EventRouter",
  "sourceName": "contracts/EventRouter.sol",
  "abi": [
    {
      "inputs": [
        {
          "internalType": "address",
          "name": "_entropyV2",
          "type": "address"
        }
      ],
      "stateMutability": "nonpayable",
      "type": "constructor"
    },
    {
      "inputs": [],
      "name": "AlreadyClaimed",
      "type": "error"
    },
    {
      "inputs": [
        {
          "internalType": "string",
          "name": "",
          "type": "string"
        }
      ],
      "name": "InvalidData",
      "type": "error"
    },
    {
      "inputs": [],
      "name": "InvalidEvent",
      "type": "error"
    },
    {
      "inputs": [],
      "name": "NotAlloted",
      "type": "error"
    },
    {
      "inputs": [],
      "name": "Unauthorized",
      "type": "error"
    },
    {
      "inputs": [
        {
          "internalType": "string",
          "name": "",
          "type": "string"
        }
      ],
      "name": "ZeroAddress",
      "type": "error"
    },
    {
      "inputs": [
        {
          "internalType": "uint64",
          "name": "sequence",
          "type": "uint64"
        },
        {
          "internalType": "address",
          "name": "provider",
          "type": "address"
        },
        {
          "internalType": "bytes32",
          "name": "randomNumber",
          "type": "bytes32"
        }
      ],
      "name": "_entropyCallback",
      "outputs": [],
      "stateMutability": "nonpayable",
      "type": "function"
    },
    {
      "inputs": [
        {
          "internalType": "uint256",
          "name": "eventId",
          "type": "uint256"
        },
        {
          "internalType": "uint256",
          "name": "tierId",
          "type": "uint256"
        }
      ],
      "name": "claimTicket",
      "outputs": [],
      "stateMutability": "nonpayable",
      "type": "function"
    },
    {
      "inputs": [
        {
          "internalType": "uint256",
          "name": "eventId",
          "type": "uint256"
        },
        {
          "internalType": "uint256",
          "name": "tierId",
          "type": "uint256"
        },
        {
          "internalType": "address",
          "name": "",
          "type": "address"
        }
      ],
      "name": "claimed",
      "outputs": [
        {
          "internalType": "bool",
          "name": "",
          "type": "bool"
        }
      ],
      "stateMutability": "view",
      "type": "function"
    },
    {
      "inputs": [],
      "name": "entropyV2",
      "outputs": [
        {
          "internalType": "contract IEntropyV2",
          "name": "",
          "type": "address"
        }
      ],
      "stateMutability": "view",
      "type": "function"
    },
    {
      "inputs": [
        {
          "internalType": "uint256",
          "name": "",
          "type": "uint256"
        }
      ],
      "name": "eventAddresses",
      "outputs": [
        {
          "internalType": "address",
          "name": "",
          "type": "address"
        }
      ],
      "stateMutability": "view",
      "type": "function"
    },
    {
      "inputs": [],
      "name": "factory",
      "outputs": [
        {
          "internalType": "address",
          "name": "",
          "type": "address"
        }
      ],
      "stateMutability": "view",
      "type": "function"
    },
    {
      "inputs": [
        {
          "internalType": "uint256",
          "name": "eventId",
          "type": "uint256"
        },
        {
          "internalType": "uint256",
          "name": "tierId",
          "type": "uint256"
        }
      ],
      "name": "getBookingMetric",
      "outputs": [
        {
          "components": [
            {
              "internalType": "uint256",
              "name": "totalBookings",
              "type": "uint256"
            },
            {
              "internalType": "uint256",
              "name": "totalPremiumBookings",
              "type": "uint256"
            },
            {
              "internalType": "uint256",
              "name": "totalGenBookings",
              "type": "uint256"
            }
          ],
          "internalType": "struct IEvent.TierBookingMetric",
          "name": "",
          "type": "tuple"
        }
      ],
      "stateMutability": "view",
      "type": "function"
    },
    {
      "inputs": [
        {
          "internalType": "uint256",
          "name": "eventId",
          "type": "uint256"
        },
        {
          "internalType": "address",
          "name": "user",
          "type": "address"
        },
        {
          "internalType": "uint256",
          "name": "tierId",
          "type": "uint256"
        }
      ],
      "name": "isAlloted",
      "outputs": [
        {
          "internalType": "bool",
          "name": "",
          "type": "bool"
        }
      ],
      "stateMutability": "view",
      "type": "function"
    },
    {
      "inputs": [],
      "name": "nextEventId",
      "outputs": [
        {
          "internalType": "uint256",
          "name": "",
          "type": "uint256"
        }
      ],
      "stateMutability": "view",
      "type": "function"
    },
    {
      "inputs": [],
      "name": "owner",
      "outputs": [
        {
          "internalType": "address",
          "name": "",
          "type": "address"
        }
      ],
      "stateMutability": "view",
      "type": "function"
    },
    {
      "inputs": [
        {
          "internalType": "uint64",
          "name": "",
          "type": "uint64"
        }
      ],
      "name": "pendingSeeds",
      "outputs": [
        {
          "internalType": "uint256",
          "name": "eventId",
          "type": "uint256"
        },
        {
          "internalType": "uint256",
          "name": "tierId",
          "type": "uint256"
        }
      ],
      "stateMutability": "view",
      "type": "function"
    },
    {
      "inputs": [
        {
          "internalType": "uint256",
          "name": "eventId",
          "type": "uint256"
        },
        {
          "internalType": "uint256",
          "name": "tierId",
          "type": "uint256"
        },
        {
          "internalType": "uint256",
          "name": "slot",
          "type": "uint256"
        }
      ],
      "name": "registerBooking",
      "outputs": [],
      "stateMutability": "nonpayable",
      "type": "function"
    },
    {
      "inputs": [
        {
          "internalType": "address",
          "name": "eventAddr",
          "type": "address"
        },
        {
          "internalType": "address",
          "name": "ticketNFTAddr",
          "type": "address"
        }
      ],
      "name": "registerEvent",
      "outputs": [
        {
          "internalType": "uint256",
          "name": "eventId",
          "type": "uint256"
        }
      ],
      "stateMutability": "nonpayable",
      "type": "function"
    },
    {
      "inputs": [],
      "name": "requestRandomNumber",
      "outputs": [],
      "stateMutability": "payable",
      "type": "function"
    },
    {
      "inputs": [
        {
          "internalType": "uint256",
          "name": "eventId",
          "type": "uint256"
        },
        {
          "internalType": "uint256[]",
          "name": "tierIds",
          "type": "uint256[]"
        }
      ],
      "name": "requestSeedAllotmentForEvent",
      "outputs": [],
      "stateMutability": "payable",
      "type": "function"
    },
    {
      "inputs": [
        {
          "internalType": "uint256",
          "name": "eventId",
          "type": "uint256"
        },
        {
          "internalType": "uint256",
          "name": "tierId",
          "type": "uint256"
        },
        {
          "internalType": "uint256",
          "name": "genSeed",
          "type": "uint256"
        },
        {
          "internalType": "uint256",
          "name": "premiumSeed",
          "type": "uint256"
        }
      ],
      "name": "seedAllotment",
      "outputs": [],
      "stateMutability": "nonpayable",
      "type": "function"
    },
    {
      "inputs": [
        {
          "internalType": "address",
          "name": "_factory",
          "type": "address"
        }
      ],
      "name": "setFactory",
      "outputs": [],
      "stateMutability": "nonpayable",
      "type": "function"
    },
    {
      "inputs": [
        {
          "internalType": "uint256",
          "name": "",
          "type": "uint256"
        }
      ],
      "name": "ticketNFTAddresses",
      "outputs": [
        {
          "internalType": "address",
          "name": "",
          "type": "address"
        }
      ],
      "stateMutability": "view",
      "type": "function"
    },
    {
      "inputs": [
        {
          "internalType": "uint256",
          "name": "eventId",
          "type": "uint256"
        },
        {
          "internalType": "uint256",
          "name": "tierId",
          "type": "uint256"
        },
        {
          "internalType": "uint256",
          "name": "slot",
          "type": "uint256"
        }
      ],
      "name": "unregisterBooking",
      "outputs": [],
      "stateMutability": "nonpayable",
      "type": "function"
    }
  ],
  "bytecode": "0x6080604052348015600e575f5ffd5b5060405161157c38038061157c833981016040819052602b9160a3565b6001600160a01b03811660715760405163eac0d38960e01b815260206004820152600960248201526822b73a3937b83cab1960b91b604482015260640160405180910390fd5b60018054336001600160a01b031991821617909155600380549091166001600160a01b039290921691909117905560ce565b5f6020828403121560b2575f5ffd5b81516001600160a01b038116811460c7575f5ffd5b9392505050565b6114a1806100db5f395ff3fe608060405260043610610110575f3560e01c80638d9304831161009d578063b2b5890311610062578063b2b5890314610354578063c45a015514610395578063e967d5b3146103b3578063ed06a740146103c6578063fb86f02c146103e5575f5ffd5b80638d930483146102865780638da5cb5b146102a557806399b84c76146102c45780639f9d903a146102f8578063a2f660341461030d575f5ffd5b8063663ba7d0116100e3578063663ba7d0146101c75780636e02fd6a146101f457806371d56f72146102135780637d688337146102325780638678a7b21461027e575f5ffd5b806342d4728e1461011457806347f5af8d1461013557806352a5f1f8146101895780635bb47808146101a8575b5f5ffd5b34801561011f575f5ffd5b5061013361012e366004611066565b610404565b005b348015610140575f5ffd5b5061017461014f3660046110aa565b600760209081525f938452604080852082529284528284209052825290205460ff1681565b60405190151581526020015b60405180910390f35b348015610194575f5ffd5b506101336101a33660046110f4565b6104a2565b3480156101b3575f5ffd5b506101336101c236600461112f565b610587565b3480156101d2575f5ffd5b506101e66101e136600461114f565b6105d2565b604051908152602001610180565b3480156101ff575f5ffd5b5061013361020e366004611066565b610693565b34801561021e575f5ffd5b5061013361022d366004611180565b610702565b34801561023d575f5ffd5b5061026661024c3660046111af565b60056020525f90815260409020546001600160a01b031681565b6040516001600160a01b039091168152602001610180565b6101336107cb565b348015610291575f5ffd5b50600354610266906001600160a01b031681565b3480156102b0575f5ffd5b50600154610266906001600160a01b031681565b3480156102cf575f5ffd5b506102666102de3660046111af565b60046020525f90815260409020546001600160a01b031681565b348015610303575f5ffd5b506101e660025481565b348015610318575f5ffd5b5061033f6103273660046111c6565b60066020525f90815260409020805460019091015482565b60408051928352602083019190915201610180565b34801561035f575f5ffd5b5061037361036e3660046111e1565b6108be565b6040805182518152602080840151908201529181015190820152606001610180565b3480156103a0575f5ffd5b505f54610266906001600160a01b031681565b6101336103c1366004611246565b610988565b3480156103d1575f5ffd5b506101336103e03660046111e1565b610c13565b3480156103f0575f5ffd5b506101746103ff3660046112fe565b610e47565b5f838152600460205260409020546001600160a01b0316806104395760405163afb6a7d160e01b815260040160405180910390fd5b604051637741d98360e11b815260048101849052602481018390523360448201526001600160a01b0382169063ee83b306906064015b5f604051808303815f87803b158015610486575f5ffd5b505af1158015610498573d5f5f3e3d5ffd5b5050505050505050565b5f6104b56003546001600160a01b031690565b90506001600160a01b0381166105125760405162461bcd60e51b815260206004820152601760248201527f456e74726f70792061646472657373206e6f742073657400000000000000000060448201526064015b60405180910390fd5b336001600160a01b038216146105765760405162461bcd60e51b815260206004820152602360248201527f4f6e6c7920456e74726f70792063616e2063616c6c20746869732066756e637460448201526234b7b760e91b6064820152608401610509565b610581848484610ef4565b50505050565b6001546001600160a01b031633146105b1576040516282b42960e81b815260040160405180910390fd5b5f80546001600160a01b0319166001600160a01b0392909216919091179055565b5f80546001600160a01b031633146105fc576040516282b42960e81b815260040160405180910390fd5b6001600160a01b038316158061061957506001600160a01b038216155b156106375760405163afb6a7d160e01b815260040160405180910390fd5b60028054905f61064683611345565b909155505f81815260046020908152604080832080546001600160a01b039889166001600160a01b0319918216179091556005909252909120805494909516931692909217909255919050565b5f838152600460205260409020546001600160a01b0316806106c85760405163afb6a7d160e01b815260040160405180910390fd5b604051632149ec6f60e11b815260048101849052602481018390523360448201526001600160a01b03821690634293d8de9060640161046f565b6001546001600160a01b0316331461072c576040516282b42960e81b815260040160405180910390fd5b5f848152600460205260409020546001600160a01b0316806107615760405163afb6a7d160e01b815260040160405180910390fd5b60405163075c899560e11b81526004810185905260248101849052604481018390526001600160a01b03821690630eb9132a906064015f604051808303815f87803b1580156107ae575f5ffd5b505af11580156107c0573d5f5f3e3d5ffd5b505050505050505050565b600354604080516341025b3d60e11b815290515f926001600160a01b031691638204b67a9160048083019260209291908290030181865afa158015610812573d5f5f3e3d5ffd5b505050506040513d601f19601f82011682018060405250810190610836919061135d565b6001600160801b031690505f60035f9054906101000a90046001600160a01b03166001600160a01b0316637b43155d836040518263ffffffff1660e01b815260040160206040518083038185885af1158015610894573d5f5f3e3d5ffd5b50505050506040513d601f19601f820116820180604052508101906108b99190611383565b505050565b6108df60405180606001604052805f81526020015f81526020015f81525090565b5f838152600460205260409020546001600160a01b0316806109145760405163afb6a7d160e01b815260040160405180910390fd5b6040516302979c8760e61b8152600481018490525f906001600160a01b0383169063a5e721c090602401606060405180830381865afa158015610959573d5f5f3e3d5ffd5b505050506040513d601f19601f8201168201806040525081019061097d919061139e565b925050505b92915050565b6001546001600160a01b031633146109b2576040516282b42960e81b815260040160405180910390fd5b5f828152600460205260409020546001600160a01b0316806109e75760405163afb6a7d160e01b815260040160405180910390fd5b81515f819003610a255760405163180a097760e01b81526020600482015260086024820152674e6f20746965727360c01b6044820152606401610509565b600354604080516341025b3d60e11b815290515f926001600160a01b031691638204b67a9160048083019260209291908290030181865afa158015610a6c573d5f5f3e3d5ffd5b505050506040513d601f19601f82011682018060405250810190610a90919061135d565b6001600160801b031690505f610aa683836113f7565b905080341015610aec5760405163180a097760e01b815260206004820152601060248201526f496e73756666696369656e742066656560801b6044820152606401610509565b5f5b83811015610bcd575f60035f9054906101000a90046001600160a01b03166001600160a01b0316637b43155d856040518263ffffffff1660e01b815260040160206040518083038185885af1158015610b49573d5f5f3e3d5ffd5b50505050506040513d601f19601f82011682018060405250810190610b6e9190611383565b90506040518060400160405280898152602001888481518110610b9357610b9361140e565b60209081029190910181015190915267ffffffffffffffff9092165f90815260068352604090208151815591015160019182015501610aee565b5080341115610c0b57336108fc610be48334611422565b6040518115909202915f818181858888f19350505050158015610c09573d5f5f3e3d5ffd5b505b505050505050565b5f828152600460205260409020546001600160a01b031680610c485760405163afb6a7d160e01b815260040160405180910390fd5b806001600160a01b031663ba829d716040518163ffffffff1660e01b8152600401602060405180830381865afa158015610c84573d5f5f3e3d5ffd5b505050506040513d601f19601f82011682018060405250810190610ca89190611435565b421015610ceb5760405163180a097760e01b815260206004820152601060248201526f139bdd081c995d99585b1959081e595d60821b6044820152606401610509565b60405163c355ca6160e01b8152336004820152602481018390526001600160a01b0382169063c355ca6190604401602060405180830381865afa158015610d34573d5f5f3e3d5ffd5b505050506040513d601f19601f82011682018060405250810190610d58919061144c565b610d755760405163024ae45b60e21b815260040160405180910390fd5b5f838152600760209081526040808320858452825280832033845290915290205460ff1615610db757604051630c8d9eab60e31b815260040160405180910390fd5b5f83815260076020908152604080832085845282528083203384528252808320805460ff1916600117905585835260059091529020546001600160a01b031680610e145760405163afb6a7d160e01b815260040160405180910390fd5b6040516340c10f1960e01b8152336004820152602481018490526001600160a01b038216906340c10f199060440161046f565b5f838152600460205260408120546001600160a01b031680610e7c5760405163afb6a7d160e01b815260040160405180910390fd5b60405163c355ca6160e01b81526001600160a01b0385811660048301526024820185905282169063c355ca6190604401602060405180830381865afa158015610ec7573d5f5f3e3d5ffd5b505050506040513d601f19601f82011682018060405250810190610eeb919061144c565b95945050505050565b67ffffffffffffffff83165f90815260066020908152604080832081518083019092528054808352600190910154928201929092529103610f6b5760405163180a097760e01b815260206004820152601060248201526f556e6b6e6f776e2073657175656e636560801b6044820152606401610509565b6020818101516040805192830185905282015282905f9060600160408051601f19818403018152918152815160209283012085515f90815260049093529120549091506001600160a01b031680610fd55760405163afb6a7d160e01b815260040160405180910390fd5b602084015160405163075c899560e11b8152600481019190915260248101849052604481018390526001600160a01b03821690630eb9132a906064015f604051808303815f87803b158015611028575f5ffd5b505af115801561103a573d5f5f3e3d5ffd5b50505067ffffffffffffffff9097165f9081526006602052604081208181556001015550505050505050565b5f5f5f60608486031215611078575f5ffd5b505081359360208301359350604090920135919050565b80356001600160a01b03811681146110a5575f5ffd5b919050565b5f5f5f606084860312156110bc575f5ffd5b83359250602084013591506110d36040850161108f565b90509250925092565b67ffffffffffffffff811681146110f1575f5ffd5b50565b5f5f5f60608486031215611106575f5ffd5b8335611111816110dc565b925061111f6020850161108f565b9150604084013590509250925092565b5f6020828403121561113f575f5ffd5b6111488261108f565b9392505050565b5f5f60408385031215611160575f5ffd5b6111698361108f565b91506111776020840161108f565b90509250929050565b5f5f5f5f60808587031215611193575f5ffd5b5050823594602084013594506040840135936060013592509050565b5f602082840312156111bf575f5ffd5b5035919050565b5f602082840312156111d6575f5ffd5b8135611148816110dc565b5f5f604083850312156111f2575f5ffd5b50508035926020909101359150565b634e487b7160e01b5f52604160045260245ffd5b604051601f8201601f1916810167ffffffffffffffff8111828210171561123e5761123e611201565b604052919050565b5f5f60408385031215611257575f5ffd5b82359150602083013567ffffffffffffffff811115611274575f5ffd5b8301601f81018513611284575f5ffd5b803567ffffffffffffffff81111561129e5761129e611201565b8060051b6112ae60208201611215565b918252602081840181019290810190888411156112c9575f5ffd5b6020850194505b838510156112ef578435808352602095860195909350909101906112d0565b80955050505050509250929050565b5f5f5f60608486031215611310575f5ffd5b833592506113206020850161108f565b929592945050506040919091013590565b634e487b7160e01b5f52601160045260245ffd5b5f6001820161135657611356611331565b5060010190565b5f6020828403121561136d575f5ffd5b81516001600160801b0381168114611148575f5ffd5b5f60208284031215611393575f5ffd5b8151611148816110dc565b5f60608284031280156113af575f5ffd5b506040516060810167ffffffffffffffff811182821017156113d3576113d3611201565b60409081528351825260208085015190830152928301519281019290925250919050565b808202811582820484141761098257610982611331565b634e487b7160e01b5f52603260045260245ffd5b8181038181111561098257610982611331565b5f60208284031215611445575f5ffd5b5051919050565b5f6020828403121561145c575f5ffd5b81518015158114611148575f5ffdfea2646970667358221220b1a524d55d9e4fd73a5923fe9df5d6dc6d034ed4e2a7d11a768999c4c12bc9c964736f6c634300081c0033",
  "linkReferences": {},
  "deployedLinkReferences": {},
  "immutableReferences": {},
  "inputSourceName": "project/contracts/EventRouter.sol",
  "buildInfoId": "solc-0_8_28-78e4abdb1ec4f7fbd0cc5dd02538a1c62f960085"
}